:020000040800F2
:1000000008040020A1010008F9010008F10100081E
:10001000F5010008E9010008B10300080000000034
:10002000000000000000000000000000290200089D
:10003000ED01000800000000250200082D02000864
:10004000BB010008BB010008BB010008BB010008A0
:10005000BB010008BB010008BB010008BB01000890
:10006000BB010008BB010008BB010008BB01000880
:10007000BB010008BB010008BB010008BB01000870
:10008000BB010008BB010008BB010008BB01000860
:10009000BB010008BB010008BB010008BB01000850
:1000A000BB010008BB010008BB010008BB01000840
:1000B000BB010008BB010008BB010008BB01000830
:1000C000BB010008BB010008BB010008BB01000820
:1000D000BB010008BB010008BB010008BB01000810
:1000E000BB010008BB010008BB010008BB01000800
:1000F000BB010008BB010008BB010008BB010008F0
:10010000BB010008BB010008BB010008BB010008DF
:10011000BB010008BB010008BB010008BB010008CF
:10012000BB010008BB010008BB010008BB010008BF
:10013000BB010008BB010008BB010008BB010008AF
:10014000BB010008BB010008BB010008BB0100089F
:10015000BB010008BB010008BB010008BB0100088F
:10016000BB010008BB010008BB010008BB0100087F
:10017000BB010008BB010008BB0100080000000033
:10018000BB010008BB010008DFF810D000F01AF82E
:1001900000480047B5040008AFF3008008040020C1
:1001A0000648804706480047FEE7FEE7FEE7FEE711
:1001B000FEE7FEE7FEE7FEE7FEE7FEE735020008A2
:1001C00089010008064C074D06E0E06840F0010395
:1001D00094E8070098471034AC42F6D3FFF7D8FFF5
:1001E00084060008A406000800BFFEE700BFFEE783
:1001F00000BFFEE700BFFEE700BFFEE710B5002826
:1002000007DA0A07140E054A00F00F031B1FD45427
:1002100003E00A07130E024A135410BD18ED00E064
:1002200000E400E000BFFEE700BFFEE710B500F00D
:10023000E9F810BD1CB55A48006840F470005849F0
:1002400008605848006840F001005649086000BF47
:100250005448006800F002000028F9D051480830E6
:10026000006800F00C0008286ED100BF002001904B
:1002700002E00198401C019001985028F9D34948A8
:10028000083000680090009820F0F000009000987E
:1002900040F0800000904349083100980860002039
:1002A000019002E00198401C019001985028F9D378
:1002B0003C48083000680090009820F0F000009062
:1002C000009840F09000009036490831009808608E
:1002D0000020019002E00198401C019001985028F4
:1002E000F9D33048083000680090009820F0F00002
:1002F0000090009840F0A00000902A490831009832
:1003000008600020019002E00198401C01900198D3
:100310005028F9D32348083000680090009820F056
:10032000F0000090009840F0B00000901D490831A6
:10033000009808600020019002E00198401C0190A4
:1003400001985028F9D300BF16480830006820F003
:100350000300144908310860C82000F03AF8114839
:100360000068114908400F4908600846006820F4F9
:100370008020086000200B490831086000BF094850
:100380000830006800200028F9D108480549091DF7
:100390000860002003490C31086000F047F91CBDDB
:1003A00088ED00E000380240FFFFF6FE1030002428
:1003B00000BFFEE702E008C8121F08C1002AFAD1F8
:1003C00070477047002001E001C1121F002AFBD1D5
:1003D000704708B50021009102E00099491C009186
:1003E00000EB8001009AB2EB410FF6D308BD00008C
:1003F0000349086000BF024909680029FBD1704722
:10040000000000200448006820B103480068401E36
:1004100001490860704700000000002081627047B9
:10042000C1627047F0B504460D4616462168E26881
:10043000002019E0012787401F409FB14FEA400C80
:10044000032707FA0CF7B943470005FA07F73943C2
:100450004FEA400C032707FA0CF7BA43470006FAA5
:1004600007F73A43471CB8B21028E3D32160E26093
:10047000F0BDF0B50C461546012C03D146681E436D
:10048000466002E046689E434660826800210DE0B7
:1004900001268E401E403EB14F000326BE40B243AF
:1004A0004E0005FA06F632434E1CB1B21029EFD3C6
:1004B0008260F0BD00F0BEF840F6044000F01CF889
:1004C0000823002201210B48FFF7ACFF082302227A
:1004D00000210848FFF7CDFF08210648FFF79EFFDF
:1004E00007E008210348FFF79BFF4FF4FA70FFF77E
:1004F0007FFFF6E700100240074A02EB9011D1F8A7
:10050000001800F01F0301229A401143024B03EB35
:100510009012C2F8001870470030024008B5002061
:1005200000213F4A126842F480323D4B1A6000BFFE
:10053000401C3B4A126802F4003119B94FF6FF72B1
:100540009042F5D1364A126802F4003232B900BF47
:10055000334A126802F40032002AF9D0304A40329D
:10056000126842F080522E4B40331A602D4A1268B6
:1005700042F440422B4B1A60294A08321268284B39
:1005800008331A601A46126842F400421A601A468A
:10059000126842F4A0521A60234A1B1F1A601A1FE5
:1005A000126842F080721B1F1A6000BF1C4A12685A
:1005B00002F00072002AF9D01A4A126842F480321E
:1005C000184B1A6000BF174A526802F48032002AA2
:1005D000F9D0144A126842F40032124B1A6000BF7C
:1005E000104A526802F40032002AF9D00C4A08324C
:1005F00012680092009A22F003020092009A42F0E0
:1006000002020092064B0833009A1A6000BF044AA7
:100610000832126802F00802002AF8D008BD000073
:1006200000380240007000401954400710B5FFF731
:1006300075FF10BD10B5124800684FF47A71B0FB19
:10064000F1F4601EB0F1807F01D301200FE0601E45
:100650004FF0E02148610F214FF0FF30FFF7CEFD52
:1006600000204FF0E021886107200861002008B1D8
:1006700000BFFEE70021481EFFF7C0FD10BD0000CF
:1006800004000020A406000800000020080000006C
:10069000B4030008AC0600080800002000040000B5
:0C06A000C403000800000000007A030AF8
:040000050800018965
:00000001FF
