:020000040800F2
:10000000D87F002061020008E1030008B103000866
:10001000DD030008F10200080106000800000000EE
:10002000000000000000000000000000A101000826
:10003000AD03000800000000FD010008E503000812
:100040007B0200087B0200087B0200087B0200089C
:100050007B0200087B0200087B0200087B0200088C
:100060007B0200087B0200087B0200087B0200087C
:100070007B0200087B0200087B0200087B0200086C
:100080007B0200087B0200087B0200087B0200085C
:10009000F50200087B0200087B0200087B020008D2
:1000A0007B0200087B0200087B0200087B0200083C
:1000B000950500087B0200087B0200087B0200080F
:1000C0007B0200087B0200087B0200087B0200081C
:1000D0007B0200087B0200087B0200087B0200080C
:1000E0007B0200087B0200087B0200087B020008FC
:1000F0007B0200087B0200087B0200087B020008EC
:100100007B0200087B020008BD0500087B02000896
:100110007B0200087B0200087B0200087B020008CB
:100120007B0200087B0200087B0200087B020008BB
:100130007B0200087B0200087B0200087B020008AB
:100140007B0200087B0200087B0200087B0200089B
:100150007B0200087B0200087B0200087B0200088B
:100160007B0200087B0200087B0200087B0200087B
:100170007B0200087B0200087B02000800000000F0
:100180007B0200087B020008DFF810D000F09EF828
:100190000048004799080008AFF30080D87F00208E
:1001A0002C4B19680868B0E8F04F80F30988BFF35A
:1001B0006F8F4FF0000080F311887047000000003F
:1001C00008480068006880F308884FF0000080F35A
:1001D000148862B661B6BFF34F8FBFF36F8F00DF35
:1001E00000BF00BF08ED00E0DFF80C00016841F43B
:1001F00070010160704700BF88ED00E0EFF30980F7
:10020000BFF36F8F134B1A681EF0100F08BF20ED5D
:10021000108A20E9F04F106009B44FF0500080F3CD
:100220001188BFF34F8FBFF36F8F01F059FB4FF071
:10023000000080F3118809BC19680868B0E8F04F25
:100240001EF0100F08BFB0EC108A80F30988BFF3CE
:100250006F8F704718000020EFF305807047000093
:100260000648804706480047FEE7FEE7FEE7FEE750
:10027000FEE7FEE7FEE7FEE7FEE7FEE719040008FB
:100280008901000840EA01039B0703D009E008C97F
:10029000121F08C0042AFAD203E011F8013B00F84B
:1002A000013B521EF9D27047D2B201E000F8012B97
:1002B000491EFBD270470022F6E710B513460A46E6
:1002C00004461946FFF7F0FF204610BD064C074DC7
:1002D00006E0E06840F0010394E807009847103416
:1002E000AC42F6D3FFF754FF20220008402200085A
:1002F00000BFFEE700B58BB0002005904CF28101F5
:10030000274800F0A3F9E0B306AA0021244800F032
:10031000D7F940F201210698884232D19DF8220097
:1003200008282ED19DF823008DF8080006A8007B30
:100330008DF8090006A8407B8DF80A0006A8807B8E
:100340008DF80B0006A8C07B8DF8040006A8007C81
:100350008DF8050006A8407C8DF8060006A8807C74
:100360008DF807009DED020A8DED030A9DED010A4F
:100370008DED040A002305AA03A90A48006801F0CC
:100380007DFB00BF059838B14FF0805006490860EA
:10039000BFF34F8FBFF36F8F00BF0BB000BD0000E6
:1003A000006400401400002004ED00E000BFFEE700
:1003B00000BFFEE710B540F6014001F057F81023EA
:1003C00000220121044800F01FFA1023022200211C
:1003D000014800F040FA10BD0004024000BFFEE7F3
:1003E00000BFFEE710B500BF502080F31188BFF3B7
:1003F0004F8FBFF36F8F00BF01F07EFC18B14FF03D
:1004000080500449086000BF002080F3118800BFBD
:1004100010BD000004ED00E01CB55A48006840F42F
:100420007000584908605848006840F0010056497B
:10043000086000BF5448006800F002000028F9D0AE
:1004400051480830006800F00C0008286ED100BF49
:100450000020019002E00198401C01900198502872
:10046000F9D34948083000680090009820F0F00067
:100470000090009840F080000090434908310098B7
:1004800008600020019002E00198401C0190019852
:100490005028F9D33C48083000680090009820F0BC
:1004A000F0000090009840F090000090364908312C
:1004B000009808600020019002E00198401C019023
:1004C00001985028F9D3304808300068009000980F
:1004D00020F0F0000090009840F0A00000902A4921
:1004E0000831009808600020019002E00198401C4B
:1004F000019001985028F9D32348083000680090F3
:10050000009820F0F0000090009840F0B0000090BB
:100510001D490831009808600020019002E0019810
:10052000401C019001985028F9D300BF16480830AC
:10053000006820F00300144908310860C82000F06A
:1005400070F811480068114908400F4908600846D2
:10055000006820F48020086000200B490831086002
:1005600000BF09480830006800200028F9D1084879
:100570000549091D0860002003490C31086001F09D
:100580000FF81CBD88ED00E000380240FFFFF6FECA
:100590001030002410B50121880701F012F850B185
:1005A0000121880701F00AF80021084600F008F947
:1005B00001200149087010BD0400002010B5012180
:1005C000074800F0FEFF50B10121054800F0F6FF9A
:1005D0000021012000F0F4F801200249087010BD4C
:1005E000000C00400C00002007E01021034800F040
:1005F00009F94FF4FA7001F0DBF8F6E70004024065
:1006000000BFFEE702E008C8121F08C1002AFAD1A5
:1006100070477047002001E001C1121F002AFBD182
:10062000704708B50021009102E00099491C009133
:1006300000EB8001009AB2EB410FF6D308BD0146F2
:1006400000208A69C2F3021070470000F0B5054629
:100650000C46002600274CF28100844205D100217F
:10066000284600F09FF8064619E01348844205D159
:100670000121284600F096F8064610E00F48844213
:1006800004D12846FFF7DBFF064608E005EB1430EF
:100690000068C4F384120121914000EA01066869F0
:1006A00004F01F020121914000EA010716B10FB1C9
:1006B0000120F0BD0020FCE784000100CB80010098
:1006C00010B500F5D87303EB01131B6803F00403A6
:1006D0001372137A3BB900F5D87303EB01131B684F
:1006E0005B0D136006E000F5D87303EB01131B6884
:1006F000DB08536000F5D87303EB01131B6803F0AC
:100700000203537200F5DA7303EB01131B681B0A33
:10071000D37400F5DA7303EB01131B6803F00F03C6
:10072000937200F5DC7303EB01131B68D37200F5C1
:10073000DC7303EB01131B681C0A147300F5DC73F4
:1007400003EB01131B681C0C547300F5DC7303EB03
:1007500001131B681C0E947300F5DE7303EB011389
:100760001B68D37300F5DE7303EB01131B681C0ACF
:10077000147400F5DE7303EB01131B681C0C547436
:1007800000F5DE7303EB01131B681C0E947421B992
:10079000C36843F02003C36003E0036943F0200310
:1007A000036110BD0246002019B9D36803F00300AD
:1007B00004E0012902D1136903F00300704700002F
:1007C0002DE9F04107460E4617B90B4C250501E00F
:1007D0000A4C0B4D012E06D1284600F0EAFE2046B9
:1007E00000F0E7FE05E0204600F0DEFE284600F0BF
:1007F000DBFEBDE8F081000000040040000800407E
:10080000000C0040C1627047F0B504460D46164624
:100810002168E268002019E0012787401F409FB14E
:100820004FEA400C032707FA0CF7B943470005FAD3
:1008300007F739434FEA400C032707FA0CF7BA438E
:10084000470006FA07F73A43471CB8B21028E3D32B
:100850002160E260F0BDF0B50C461546012C03D1D5
:1008600046681E43466002E046689E4346608268D2
:1008700000210DE001268E401E403EB14F000326B0
:10088000BE40B2434E0005FA06F632434E1CB1B2EA
:100890001029EFD38260F0BD1CB54FF4407000F01A
:1008A00017F8FFF787FD0020022103468022CDE9DB
:1008B000001004A1054801F0FDF900F0DDFF00BFC4
:1008C000FEE70000426C696E6B790000E9050008E4
:1008D00002490143024A1160704700000000FA0516
:1008E0000CED00E02DE9F04705460E462B48076861
:1008F0002B48D0F800802B48D0F8009000202A49DF
:10090000096881F8590028480068001D00F065FE5C
:1009100050B92548006890F82C10012088402349E0
:100920000968814321480160681CE0B9DEB100BF5D
:100930001F4948681C49096888601B498268096822
:10094000CA6019490968091D826851601649096819
:10095000091D8160164A144909684A6111460968EF
:10096000491C116018E07C190F4800684460BC42C3
:1009700006D20D480168091D484600F059FE0BE0FB
:1009800009480168091D404600F052FE0948006808
:10099000844201D207480460BDE8F0872C000020A3
:1009A0001C00002020000020180000203000002043
:1009B0009C0300204800002010B5044600F052FEC1
:1009C00034480068401C334908603348006840B927
:1009D000314804600846006801280DD100F034FA5F
:1009E0000AE02E48006838B92B480068C06AE16AFE
:1009F000884201D82848046029480068401C2849DA
:100A0000086008460068606400BF94F82C1001205C
:100A100088402449096808432249086000BFE16A08
:100A200001EB8101204A02EB81014868A0608268E5
:100A3000E260211D826851608160E16A01EB810101
:100A4000194A02EB81026261E16A01EB8101164AF7
:100A500052F82110491CE26A02EB8202124B43F861
:100A6000221000BF00BF00F00FFE0C48006878B1F4
:100A700000BF09480068C06AE16A884207D24FF0A7
:100A800080500A490860BFF34F8FBFF36F8F00BFDC
:100A900010BD0000280000201800002034000020B5
:100AA0004400002030000020CC00002004ED00E0D5
:100AB00010B500F0D7FD10480068D0B90F4800F01D
:100AC000A7FD0F4800F0A4FD0C480E4908600C4833
:100AD0000D490860002210210A2000F059FF064944
:100AE00008600846006820B108A10348006800F0CB
:100AF00015FE00F0C9FD10BD60000020B00300200D
:100B0000C4030020580000205C000020546D725186
:100B10000000000010B516E000F0A4FD0C48C0680D
:100B2000C468201D00F059FD0A480068401E0949AC
:100B3000086009480068401E0749086000F0A4FDED
:100B4000204600F0C0F8044800680028E4D110BD39
:100B500088030020280000202400002070B50446EF
:100B60000D46206C70B1216CE0680144E160D4E96D
:100B70000210884201D32168E1602846226CE168B6
:100B8000FFF780FB70BD2DE9F04104460F46154686
:100B90004FF00008A66B206C48B9206800282CD1C3
:100BA000A06801F079F980460020A06025E07DB9B9
:100BB0003946226C6068FFF765FB216C6068084469
:100BC0006060D4E90101884217D32068606014E0B6
:100BD0003946226CE068FFF755FB216CE068411A4A
:100BE000E1602168E068884203D2216CA068411A64
:100BF000E160022D01D106B1761E701CA063404653
:100C0000BDE8F081F0B587B001260027002408E098
:100C100012A0005D03A9085503A8005D00B902E019
:100C2000641C102CF4DB00BF002510E00D4F0E48B3
:100C300000EB850000210B468022CDE9001003A9BE
:100C4000384601F037F8064606B902E06D1C012D62
:100C5000ECDB00BF304607B0F0BD000049444C4516
:100C6000000000006D0D00084C0000202DE9FF5F22
:100C70000746884616469946DDE90EABB00000F0FF
:100C80005FFB054675B15C2000F05AFB04462CB1B1
:100C90005C212046FFF70FFB256304E0284600F0A7
:100CA00003FD00E0002454B100204B46324641468B
:100CB000CDE900ABCDE90240384600F082F820468D
:100CC00004B0BDE8F09F10B50446206B00F0ECFCCA
:100CD000204600F0E9FC10BD0146084A126812687F
:100CE0000AB9012200E000220A600A6822B9034A18
:100CF0001268D268106800E0002070475800002099
:100D000030B54FF4F043144800F007042CB1C01D77
:100D100020F00700104C041B1B1B104C206000240B
:100D20000E4D6C60C218083A22F007020C4C22608B
:100D300000240B4D2D686C60094D2D682C60014618
:100D4000541A4C60064C24680C60064D4C682C60AC
:100D5000054D4C682C6030BDD80300206C0000208D
:100D6000740000207C0000207800002000BFFFF706
:100D7000D1FE064800680128F9D94FF08050044997
:100D80000860BFF34F8FBFF36F8FF0E7CC000020F8
:100D900004ED00E02DE9F04106460D461746984661
:100DA000069C0DB9246000E02760E66325640121FC
:100DB000204600F013FE84F850800020A064BDE8B7
:100DC000F0812DE9F05F81460E4690469A460A9FD3
:100DD0000C9C4FEA8801A522206BFFF765FAA8F169
:100DE0000100216B01EB800B2BF0070B7EB100257E
:100DF00007E0715D04F134004155705D00B902E017
:100E00006D1C102DF5D300BF002143200155202F6C
:100E100000D31F27E762E764201D00F006FC04F101
:100E2000180000F002FC2461C7F12000A061646298
:100E300052464946584600F003FB20600B9808B123
:100E40000B980460BDE8F09F10B5002407E004EBA8
:100E500084010F4A02EB810000F0DAFB641C202CB5
:100E6000F5D30C4800F0D4FB0B4800F0D1FB0B4845
:100E700000F0CEFB0A4800F0CBFB0A4800F0C8FBAC
:100E800004480949086004480849086010BD00008A
:100E9000CC0000204C0300206003002074030020DD
:100EA000880300209C0300201C000020200000205C
:100EB00010B50146164800E0006803688B42FBD37A
:100EC0000246436813448B4204D143684C68234470
:100ED000436001460A464B6813440468A34211D19B
:100EE0000C4C03682468A34208D04B68046864680B
:100EF00023444B6003681B680B6005E0054B1B68CF
:100F00000B6001E003680B60884200D0016010BDF7
:100F10006C000020740000202DE9F04104460D46CD
:100F200016461F464FF0000865602461B5420CD894
:100F3000F01BA169884202D34FF0010811E0211D86
:100F40000948006800F074FB0BE0BE4204D2BD42C9
:100F500002D34FF0010804E0211D0448006800F0AE
:100F600067FB4046BDE8F0815C000020580000208F
:100F700070B5054600F076FBA86B08B9012400E0C7
:100F8000002400F081FB204670BDF1B50098846C10
:100F90000026A06BE16B884222D294F945500022D2
:100FA00069462046FFF7EFFD0646681C60B9606A97
:100FB00008B9012000E0002088B904F1240000F005
:100FC000C5FF60B101260AE000BF00F01BFB074629
:100FD000BD4203D2681C40B284F8450000BF00BF88
:100FE0003046F8BD70B505460E460E480068C0682C
:100FF000C468201D00F0F1FA94F8280000F0040005
:1010000028B132462946204600F0D6F805E094F88B
:10101000280000F0FE0084F828002046216A884756
:1010200070BD00005800002070B586B0002002900E
:1010300003900490059077E00298002805DA03AE4B
:10104000D6E90020B168904700BF029800286BDB0A
:10105000049C606908B9012000E0002010B9201D3F
:1010600000F0BBFA01A800F0D3F8054602980A2860
:1010700058D2DFE800F05705072E364706082F370D
:1010800000BF00BF00BF94F8280040F0010084F8C2
:1010900028000398A269811803462A462046FFF7D4
:1010A0003BFFA8B194F8280000F0040038B1039881
:1010B000A26981182A46204600F07EF805E094F8DF
:1010C000280000F0FE0084F828002046216A8847A6
:1010D00029E000BF94F8280000F0FE0084F8280002
:1010E00021E000BF94F8280040F0010084F82800B7
:1010F0000398A061A06941192B462A462046FFF7B4
:101100000BFF10E094F8280000F0020018B9204608
:1011100000F0CAFA05E094F8280000F0FE0084F818
:10112000280000E000BF00BF002202A904480068B8
:1011300000F000FD00287FF47FAF06B070BD000016
:1011400060000020F8B505460C4600F0C1FB68467B
:1011500000F05EF80646009820BB44B9B54206D8B8
:1011600000F080FF31462846FFF73CFF1CE03CB111
:101170000E480068006808B9012000E0002004461D
:10118000A91B22460A48006800F0ECFA00F06AFF4A
:1011900050B94FF0805007490860BFF34F8FBFF33D
:1011A0006F8F01E000F05EFFF8BD00005C000020E2
:1011B0006000002004ED00E070B504460D461646C0
:1011C00004E0A06905442046216A8847A0694119C6
:1011D0002B4632462046FFF79FFE0028F1D170BD16
:1011E00009480068006808B9012000E0002020B12B
:1011F0004FF0FF300549086005E003480068C0680B
:1012000000680249086070471C0000204800002068
:1012100070B5044600F06AFD05460748006885423F
:1012200004D200F00BF80120206001E000202060D3
:1012300001480560284670BD6800002070B508E0D0
:101240000D480068C06804684FF0FF312046FFF782
:10125000C9FE09480068006808B9012000E00020C4
:101260000028EDD004480568044800680249086079
:101270000248056070BD0000580000205C0000209E
:1012800000BF502080F31188BFF34F8FBFF36F8FE3
:1012900000BF00BFFEE708B500BF6846FFF71CFDB2
:1012A000044620460099FFF74DFFFFF7BDFEF4E727
:1012B00070B5044600F0D6F994F9455019E0A06CD9
:1012C00030B12046FFF761FE88B100F097FA0EE0DA
:1012D000606A08B9012000E0002038B904F1240058
:1012E00000F034FE18B100F089FA00E003E0681E57
:1012F00045B2002DE3DC00BFFF2084F8450000F07C
:10130000C3F900F0AFF994F9445010E0206908B92E
:10131000012000E0002048B904F1100000F016FEA2
:1013200008B100F06BFA681E45B200E001E0002D44
:10133000ECDC00BFFF2084F8440000F0A5F970BD8C
:101340002DE9F04704464FF00009DCB114F1090F14
:1013500001D9012000E0002098B9083404F007000A
:1013600080B104F00700C0F10808C8F1FF30A042C6
:1013700001D2012000E0002008B9444402E000242A
:1013800000E0002400F0A4FA2848006808B9FFF73C
:10139000B7FC012000EBE470002841D0002C3FD0C6
:1013A0002348006884423BD8224E3046056801E05D
:1013B0002E462D686868A04202D228680028F7D11E
:1013C0001A48006885422BD0306800F10809286867
:1013D00030606868001B102807D92F196868001B47
:1013E00078606C60306838603760114968680968F7
:1013F000081A0F490860084600680F4909688842C2
:1014000003D20B4800680C490860686840F000404F
:1014100068600020286009480068401C074908608F
:1014200000F020FE4846BDE8F08700007400002070
:10143000780000206C0000207C000020800000204C
:10144000001F4FF080730360001F21F00103036051
:10145000001F054B036014380260001F6FF0020389
:10146000036020387047000081120008074A02EB31
:101470009011D1F8001800F01F0301229A40114387
:10148000024B03EB9012C2F8001870470030024084
:1014900008B5002000213F4A126842F480323D4BDB
:1014A0001A6000BF401C3B4A126802F4003119B9AF
:1014B0004FF6FF729042F5D1364A126802F40032BC
:1014C00032B900BF334A126802F40032002AF9D060
:1014D000304A4032126842F080522E4B40331A603C
:1014E0002D4A126842F440422B4B1A60294A0832B6
:1014F0001268284B08331A601A46126842F40042F8
:101500001A601A46126842F4A0521A60234A1B1F3E
:101510001A601A1F126842F080721B1F1A6000BF07
:101520001C4A126802F00072002AF9D01A4A1268A6
:1015300042F48032184B1A6000BF174A526802F416
:101540008032002AF9D0144A126842F40032124B59
:101550001A6000BF104A526802F40032002AF9D023
:101560000C4A083212680092009A22F0030200929C
:10157000009A42F002020092064B0833009A1A6069
:1015800000BF044A0832126802F00802002AF8D0AC
:1015900008BD0000003802400070004019544007A8
:1015A00010B5FFF775FF10BD016821F00101016062
:1015B0007047016841F0010101607047CA43026150
:1015C00070470246D06800EA01031069084010B174
:1015D0000BB1012070470020FCE701460A69D1E900
:1015E00001309860D1E9010358605068884201D108
:1015F00088685060002008611068401E1060106804
:101600007047000001480068704700002800002073
:1016100000F1080141604FF0FF31816000F10801E5
:10162000C1600161002101607047002101617047C4
:1016300010B502460B685C1C0CB9106907E002F19A
:10164000080000E04068446824689C42FAD9446875
:101650004C604C68A160886041600A611468641C39
:10166000146010BD00BF502080F31188BFF34F8F6E
:10167000BFF36F8F00BF03480068401C014908603A
:10168000704700008800002006480068401E054999
:1016900008600846006820B9002080F3118800BF68
:1016A00000BF70478800002070B506463546E6B199
:1016B000083D2C466068C00FB8B12068A8B96068C2
:1016C00020F00040606000F003F908496068096894
:1016D0000844064908602046FFF7EAFB0448006812
:1016E000401C0349086000F0BDFC70BD780000207C
:1016F0008400002000204FF0E02108618861064846
:1017000000684FF47A71B0FBF1F0401E4FF0E02119
:1017100048610720086170470000002010B50246AC
:101720000B460021BBB1002012E00D4C04EBC004BD
:101730006468944203D10A4C04EBC0010AE031B959
:10174000074C54F8304014B9054C04EBC001401C60
:101750000828EAD300BF09B10B604A6010BD000041
:101760008C0000202DE9F04105460E4617462C4618
:10177000FFF778FF94F94400401C10B9002084F86A
:10178000440094F94500401C10B9002084F845003D
:10179000FFF77AFFA06B28B93A46314604F12400DE
:1017A00000F042F82046FFF783FDBDE8F08100001D
:1017B00070B50446002544B100F08AF800212046A7
:1017C000FFF790F800F04EFC05463DB94FF0805011
:1017D00003490860BFF34F8FBFF36F8F70BD0000E8
:1017E00004ED00E0034909680160034909684160AC
:1017F00070470000400000202C000020012001491B
:10180000086070473C00002070B505460C4605484E
:10181000016818312846FFF70BFF01212046FFF72A
:1018200061F870BD1800002070B504460E461546DC
:1018300000BF60680F490968C8610E49826809687D
:101840000A620C49096818318268516009490968BF
:1018500018318160074909688C622168491C216040
:1018600000BF0DB14FF0FF3629463046FFF73AF87A
:1018700070BD00001800002010B5FFF7C3F9044642
:10188000012C02D100F0ACFC0446012C14D100BFA5
:10189000502080F31188BFF34F8FBFF36F8F00BFCD
:1018A0004FF0FF300649086001200649086000201B
:1018B0000549086000F048F80448006810BD0000C1
:1018C00048000020340000202C00002050000020A0
:1018D00002480068401C014908607047540000201D
:1018E0001448006818B101201349086021E0002065
:1018F0001149086000BF11480068B0FA80F0C0F1DB
:101900001F0100BF01EB81020D4B03EB8200426817
:101910005268426000F108024368934201D1C268F4
:1019200042604268D268074B1A6000BF00BF184689
:1019300000687047540000203C0000203000002068
:10194000CC0000201800002010B50E48006840F4BC
:101950007F000C4908600846006840F07F4008603E
:10196000FFF7C8FE002008490860FEF73DFC074865
:10197000006840F0404005490860FEF721FC002067
:1019800010BD000020ED00E08800002034EF00E0F2
:101990002DE9F84304460E4617460025DCB1681EC3
:1019A000B0FBF4F0B04216D304FB06F010F1550F73
:1019B00011D804FB06F909F15400FFF7C1FC0546F4
:1019C0004DB1A84608F154083B46424631462046F0
:1019D0000095FFF7DFF92846BDE8F8832DE9F041CF
:1019E00005460E4601272C46002C41D0E06B00280E
:1019F0003ED0B91EE06BB1FBF0F0216C884237D3CA
:101A0000FFF730FED4E90F12206801FB0200A0604E
:101A10000020A06320686060E06B401E226C21689B
:101A200000FB0211E160FF2084F8440084F84500C7
:101A30009EB9206908B9012000E00020A8B904F18E
:101A4000100000F083FA80B14FF080500A4908601E
:101A5000BFF34F8FBFF36F8F07E004F11000FFF764
:101A6000D7FD04F12400FFF7D3FDFFF70DFE00E0E2
:101A700000273846BDE8F08104ED00E02DE9FF4F76
:101A800081B0064615461F46344600BF5021EFF38D
:101A9000118081F31188BFF34F8FBFF36F8F00BFA9
:101AA0008146A06BE16B884201D3022F37D194F9B4
:101AB00045A0A06B00903A4620460299FFF763F8D4
:101AC0000AF10100E0B9A06C58B1022F01D10098D1
:101AD00010BB2046FFF759FAF0B1EDB101202860A4
:101AE0001AE0606A08B9012000E00020A0B904F102
:101AF000240000F02BFA78B175B1012028600BE0CA
:101B000000BFFFF77FFD8346DA4504D20AF10100EA
:101B100040B284F8450000BF4FF0010801E04FF0EB
:101B2000000800BF89F3118800BF404605B0BDE83A
:101B3000F08F00002DE9F74183B005460F464FF0C6
:101B400000082C4600BFFFF78DFDA66BF6B13946A5
:101B50002046FFF703F8701EA063206908B9012032
:101B600000E0002060B904F1100000F0EFF938B196
:101B70004FF080502F490860BFF34F8FBFF36F8F36
:101B8000FFF782FD012006B0BDE8F081059818B985
:101B9000FFF77AFD0020F6E7B8F1000F04D101A8A5
:101BA000FFF720FE4FF00108FFF76EFDFFF790FEF4
:101BB000FFF758FD94F94400401C10B9002084F848
:101BC000440094F94500401C10B9002084F84500F9
:101BD000FFF75AFD05A901A800F02EF8F0B920463C
:101BE000FFF7C6F9A0B104F124000599FFF70CFE38
:101BF0002046FFF75DFB00F035FA0028A3D14FF037
:101C000080500C490860BFF34F8FBFF36F8F9AE786
:101C10002046FFF74DFB00F025FA94E72046FFF73A
:101C200047FB00F01FFA2046FFF7A2F900288AD0F0
:101C30000020A8E704ED00E070B506460C46FFF76B
:101C400011FD194802687068131A1848006890F866
:101C5000590030B100201549096881F85900012563
:101C60001EE02068401C08B9002519E010493068C2
:101C70000968884206D07068904203D80125002088
:101C800020600DE02068984207D92068C01A2060C3
:101C90003046FFF7A7FD002502E000202060012567
:101CA000FFF7F2FC284670BD2C0000201800002031
:101CB000400000202DE9FC5F06460F4690469946FD
:101CC000DDE90CAB4B46424639463046CDE900AB28
:101CD000FEF7CCFF054625B12846FEF76DFE012430
:101CE00001E04FF0FF342046BDE8FC9F0149086841
:101CF000704700002C0000202DE9F04100275B48D0
:101D0000006800287DD15A480068451C5848056085
:101D100095B900BF5748D0F800805748006855492A
:101D200008605548C0F8008054480068401C53497A
:101D30000860FFF755FA00BF5148006885427DD31F
:101D400000BF4C480068006808B9012000E000208E
:101D500020B14FF0FF304A4908606EE04548006806
:101D6000C068C4686668B54202D24548066064E04F
:101D700000BF6069D4E902128A60D4E902214A6096
:101D8000211D42688A4201D1E168416000226261FE
:101D90000168491E016000BFA06AA0B100BFA06A2F
:101DA000D4E907128A60D4E907214A6004F11801D6
:101DB00042688A4201D1216A41600022A262016820
:101DC000491E016000BF00BF94F82C10012088401C
:101DD0002C49096808432B49086000BFE16A01EB00
:101DE0008101294A02EB81014868A0608268E260B3
:101DF000211D826851608160E16A01EB8101224A04
:101E000000E02BE002EB81026261E16A01EB8101FB
:101E10001D4A52F82110491CE26A02EB82021A4B59
:101E200043F8221000BF00BF1849E06A0968C96A78
:101E3000884286D9012784E700E000BF1348006884
:101E4000C06A00EB8000104951F82000012800D939
:101E500001270F48006800B1012704E00D48006821
:101E6000401C0C4908603846BDE8F0815400002051
:101E70002C0000201C00002020000020400000203A
:101E80004800002030000020CC0000201800002076
:101E90003C0000203800002070B505462C46002686
:101EA000002D4CD0206D401E2065E16CE06A884218
:101EB00045D0206D002842D1201DFFF78EFB40B990
:101EC00094F82C10012088401E49096881431D4860
:101ED0000160E06CE062E06AC0F12000A06100BF38
:101EE00094F82C10012088401649096808431549C8
:101EF000086000BFE16A01EB8101134A02EB810136
:101F00004868A0608268E260211D8268516081603B
:101F1000E16A01EB81010C4A02EB81026261E16A34
:101F200001EB8101084A52F82110491CE26A02EBD8
:101F30008202054B43F8221000BF00BF0126304645
:101F400070BD000030000020CC00002070B50346BA
:101F5000D868C16800BF886AD1E90745A560D1E9A2
:101F60000754656001F118044568A54201D10C6A67
:101F7000446000258D620468641E046000BF33481D
:101F80000068002842D100BF4869D1E90245A56038
:101F9000D1E9025465600C1D4568A54201D1CC68A9
:101FA000446000254D610468641E046000BF00BFEA
:101FB00091F82C400120A040254C24682043244C5B
:101FC000206000BFCC6A04EB8404224D05EB84043E
:101FD000606888608568CD600C1D85686C60846071
:101FE000CC6A04EB84041B4D05EB84054D61CC6A7F
:101FF00004EB8404174D55F82440641CCD6A05EBAE
:102000008505144E46F8254000BF11E000BF124C74
:102010006068C86185680D6201F1180485686C60AC
:1020200084600D4D8D622C462468641C2C6000BFBA
:102030000A4CC86A2468E46AA04204D9012201203B
:10204000074C206000E00022104670BD54000020C4
:1020500030000020CC000020740300201800002075
:102060003C0000202DE9F04100240027FFF7FAFA98
:10207000002552480068401E504908600846006824
:1020800000286ED14E48006800286AD064E04D48B0
:10209000C068C46800BFA06AD4E907128A60D4E9A6
:1020A00007214A6004F1180142688A4201D1216A7D
:1020B00041600022A2620168491E016000BF00BFAA
:1020C0006069D4E902128A60D4E902214A60211DC4
:1020D00042688A4201D1E168416000226261016880
:1020E000491E016000BF00BF94F82C1001208840F9
:1020F0003549096808433449086000BFE16A01EBCB
:102100008101324A02EB81014868A0608268E26086
:10211000211D826851608160E16A01EB81012B4AD7
:1021200002EB81026261E16A01EB8101274A52F808
:102130002110491CE26A02EB8202244B43F8221070
:1021400000BF00BF2249E06A0968C96A884203D912
:102150000120204941F825001A48006810B90120E3
:1021600001E026E00020002891D00CB1FFF738F8FC
:10217000194806686EB100BFFFF7BEFD18B1012017
:10218000144941F82500761E002EF5D10020124991
:102190000860104850F8250058B1012700BF0C48CE
:1021A000006838070D490860BFF34F8FBFF36F8F8A
:1021B00000BFFFF769FA3846BDE8F08154000020FF
:1021C000280000207403002030000020CC000020F4
:1021D000180000203C0000203800002004ED00E042
:1021E0001CB50024FEF764FC0848006858B1084894
:1021F0001F2100234FF48072CDE9001005A107488C
:10220000FFF758FD044620461CBD0000600000207A
:1022100064000020546D722053766300971200080A
:1022200040220008000000208C0000000406000886
:10223000CC2200088C0000204C7F0000140600080F
:10224000007A030A000000000000803F0000000048
:102250000000803F000000000000000000000000BF
:10226000000000000000000000000000000000006E
:10227000000000000000000000000000000000005E
:10228000000000000000000000000000000000004E
:102290001F0000000000000000000000000000001F
:1022A000000000000000000000000000000000002E
:1022B000000000000000000000000000000000001E
:0C22C0000000000000000000AAAAAAAA6A
:040000050800018965
:00000001FF
