:020000040800F2
:10000000E07F002061020008F50A00085909000895
:100010008D090008970800080D0E00080000000078
:10002000000000000000000000000000A101000826
:100030005509000800000000FD010008F90A000849
:100040007B0200087B0200087B0200087B0200089C
:100050007B0200087B0200087B0200087B0200088C
:100060007B0200087B0200087B0200087B0200087C
:100070007B0200087B0200087B0200087B0200086C
:100080007B0200087B0200087B0200087B0200085C
:100090009D0800087B0200087B0200087B02000824
:1000A0007B0200087B0200087B0200087B0200083C
:1000B000B90D00087B0200087B0200087B020008E3
:1000C0007B0200087B0200087B0200087B0200081C
:1000D0007B0200087B0200087B0200087B0200080C
:1000E0007B0200087B0200087B0200087B020008FC
:1000F0007B0200087B0200087B0200087B020008EC
:100100007B0200087B020008E10D00087B0200086A
:100110007B0200087B0200087B0200087B020008CB
:100120007B0200087B0200087B0200087B020008BB
:100130007B0200087B0200087B0200087B020008AB
:100140007B0200087B0200087B0200087B0200089B
:100150007B0200087B0200087B0200087B0200088B
:100160007B0200087B0200087B0200087B0200087B
:100170007B0200087B0200087B02000800000000F0
:100180007B0200087B020008DFF810D000F050FB73
:100190000048004731220008AFF30080E07F0020D4
:1001A0002C4B19680868B0E8F04F80F30988BFF35A
:1001B0006F8F4FF0000080F311887047000000003F
:1001C00008480068006880F308884FF0000080F35A
:1001D000148862B661B6BFF34F8FBFF36F8F00DF35
:1001E00000BF00BF08ED00E0DFF80C00016841F43B
:1001F00070010160704700BF88ED00E0EFF30980F7
:10020000BFF36F8F134B1A681EF0100F08BF20ED5D
:10021000108A20E9F04F106009B44FF0500080F3CD
:100220001188BFF34F8FBFF36F8F03F08BFE4FF03A
:10023000000080F3118809BC19680868B0E8F04F25
:100240001EF0100F08BFB0EC108A80F30988BFF3CE
:100250006F8F704718000020EFF305807047000093
:100260000648804706480047FEE7FEE7FEE7FEE750
:10027000FEE7FEE7FEE7FEE7FEE7FEE73D0C0008CF
:100280008901000840EA01039B0703D009E008C97F
:10029000121F08C0042AFAD203E011F8013B00F84B
:1002A000013B521EF9D27047D2B201E000F8012B97
:1002B000491EFBD270470022F6E710B513460A46E6
:1002C00004461946FFF7F0FF204610BD2DE9F04D1A
:1002D00081EA030404F0004B21F0004514464FF07E
:1002E000000A23F0004150EA050220D054EA01023E
:1002F0001DD0C5F30A570246C5F31303C1F313001B
:10030000C1F30A5640F4801543F48013A7EB0608A6
:10031000101BD64608F2FD3873EB050002D308F136
:10032000010801E092185B41B8F1000F03DA0020E8
:100330000146BDE8F08D00204FF48011064684464A
:100340000EE0171B73EB050705D3121B63EB0503C8
:1003500006434CEA010C49084FEA300092185B4111
:1003600050EA0107EDD152EA030012D082EA0400FC
:1003700083EA0501084305D0101BAB4106D20122D8
:10038000002306E000224FF0004302E06FF001027C
:1003900053101AEB06004CEB085110EB0A0041EB2E
:1003A0000B01BDE8F04D00F0B4B8C1F30A5210B52E
:1003B000C1F3130140F2FF3341F480119A4201DA94
:1003C000002010BD40F233439A42A2F2334203DCD4
:1003D000524200F08EF810BD904010BD00F0004277
:1003E00030F000400AD0C10D01F56071C0F3160075
:1003F00042EA0151C20840071143704700200146FC
:100400007047000030B5041E71F1000404DB4FF0AA
:100410000044404264EB0101141E73F1000405DB4B
:100420001C464FF00043524263EB04038B4208BF6B
:10043000824230BD30B5041E71F1000404DB4FF080
:100440000044404264EB0101141E73F1000405DB1B
:100450001C464FF00043524263EB0403994208BF2D
:10046000904230BD30B50B460146002020220124C9
:1004700009E021FA02F59D4205D303FA02F5491B72
:1004800004FA02F52844151EA2F10102F1DC30BD88
:100490002DE9F05F0546002092469B4688460646B9
:1004A000814640241BE0284641464746224600F04C
:1004B00020F853465A46C01A914110D311461846A7
:1004C000224600F0C7F92D1A67EB01084F46224675
:1004D0000120002100F0BEF917EB00094E41201E5B
:1004E000A4F10104DFDC484631462A464346BDE814
:1004F000F09F202A04DB203A21FA02F00021704705
:1005000021FA02F3D040C2F120029140084319467B
:10051000704710B5141E73F1000408DA401C41F155
:10052000000192185B411A4301D120F0010010BD77
:100530002DE9F04D92469B4611B1B1FA81F202E0ED
:10054000B0FA80F22032904600F084F904460F465B
:1005500040EA0A0041EA0B0153465A46084313D0C9
:10056000114653EA010019D0C8F140025046FFF786
:10057000C0FF05460E4650465946424600F06AF90D
:10058000084305D0012004E020463946BDE8F08D3F
:100590000020054346EAE0762C4337430A9863057A
:1005A000E40AA0EB08000022FD0A44EA47540A309E
:1005B00002D500200146E9E7010510196941DDE98E
:1005C000084500196941BDE8F04DA2E72DE9FE4F4D
:1005D000804681EA0300C00F0C46009021F00041E4
:1005E00023F00045B8EB0200A94105D24046214660
:1005F00090461C460B46024623F00040104347D06D
:10060000270DC7F30A00C3F30A510290401A019064
:1006100040286BDAC3F3130040F4801B0098924625
:1006200020B10023D2EB030A63EB0B0B0198594670
:10063000C0F14002504600F00DF906460D46504606
:100640005946019A00F015F910EB080061410024A9
:1006500087EA115284EAE7731A4340D0009A62B3E2
:10066000019A012A4FEA075215DC001B61EB0201D7
:100670004FF0004202EA0752CDE90042001C41F56A
:10068000801132462B46FFF753FF03B0BDE8F08FD1
:1006900040462146F9E7001B61EB0201001C41F5D1
:1006A000801300185B412018A2F5001747EB0301E7
:1006B00040EAD570B6196D4111E06D084FEA360673
:1006C00045EAC0754FEA0752001B61EB0201001CAE
:1006D00041F5801149084FEA300000195141324676
:1006E0002B4603B0BDE8F04FFFF713BF009801227F
:1006F00040000023D0EB020263EBE0730098214638
:100700004FEAE074B8EB000061EB0401E9E783F025
:1007100000435BE781F0004158E72DE9FE4F81EA95
:10072000030404F0004421F0004100944FF0000B5A
:1007300023F0004350EA01045ED052EA03045BD088
:10074000C3F30A54C1F30A552C44A4F2F3340194C0
:10075000A0FB0254C1F3130141F48011C3F313034E
:1007600043F4801301FB024400FB034E840A970A02
:1007700044EA815447EA8357A4FB076802958D0A2F
:1007800005FB07854FEA932C04FB0C542705029DBB
:100790004FEA065847EA1637B5EB08056EEB070C2B
:1007A000870E920E47EA811742EA8312A7FB0201E5
:1007B000B6EB0B0164EB00042B0D43EA0C335E181F
:1007C00044EB1C50DA465146E7FB0201C5F3130423
:1007D0004FEA0B3343EA14534FEA0432019C43EAD5
:1007E0000603A4F10C040294009CCDE900B4FFF7C9
:1007F0009FFE03B0BDE8F08F00200146F9E7C1F38A
:100800000A52C1F3130140F2FF3341F480119A42BE
:1008100002DA00200146704740F233439A42A2F2C6
:10082000334202DC5242FFF764BE00F013B800000E
:10083000064C074D06E0E06840F0010394E807002D
:1008400098471034AC42F6D3FFF7A2FC0C490008DD
:100850002C490008202A04DB203A00FA02F100208B
:1008600070479140C2F1200320FA03F319439040EE
:100870007047202A06DBCB17203A41FA02F043EA00
:10088000E07306E041FA02F3D040C2F12002914049
:1008900008431946704700BFFEE7000000B58BB063
:1008A000002005904CF28101274801F0E9F8E0B3FF
:1008B00006AA0021244801F01DF940F20121069802
:1008C000884232D19DF8220008282ED19DF82300BD
:1008D0008DF8080006A8007B8DF8090006A8407B6B
:1008E0008DF80A0006A8807B8DF80B0006A8C07B57
:1008F0008DF8040006A8007C8DF8050006A8407C51
:100900008DF8060006A8807C8DF807009DED020A90
:100910008DED030A9DED010A8DED040A002305AA61
:1009200003A90A48006803F01FFC00BF059838B10E
:100930004FF0805006490860BFF34F8FBFF36F8FB1
:1009400000BF0BB000BD0000006400401400002098
:1009500004ED00E000BFFEE700BFFEE710B540F683
:10096000014002F0DBFC102300220121064801F0C7
:10097000D3FB102302220021034801F0F4FB1021D5
:10098000014801F0C0FB10BD0004024000BFFEE7BB
:100990002DED048B84B000220821052003F06EFBAE
:1009A0002A49086000F0B2FE1D227F21392001F0A3
:1009B000FBFB1D227F21392003F0F8FA24A000F070
:1009C00027FA42E04FF0FF3202A92048006803F006
:1009D00027FC012839D110212B4801F096FB9DED11
:1009E000030A10EE101A0846FFF7F8FC41EC180B4A
:1009F0009DED020A10EE101A0846FFF7EFFC41ECDD
:100A0000190B8DED008B53EC192B20A000F000FA90
:100A10009DED031AF0EE410A9DED021AB0EE410A77
:100A200001F09EFC26A000F0F3F9304890ED011A89
:100A3000F0EE410A2E4890ED011AB0EE410A01F0A5
:100A400087F91021104801F060FBBBE7140000207B
:100A50005B4D6F746F725D2048617264776172657F
:100A600020496E697420446F6E652E205761697449
:100A7000696E6720666F7220636F6D6D616E64735F
:100A80002E2E2E0D0A000000000402405B4D6F74F4
:100A90006F725D20526563656976656420434D44DD
:100AA0003A20583D252E32662C20593D252E32669F
:100AB0002E204D6F76696E672E2E2E0D0A000000D7
:100AC0005B4D6F746F725D20506F736974696F6EE8
:100AD00020526561636865642120466565646261D2
:100AE000636B2073656E742E0D0A00000C000020ED
:100AF0000400002000BFFEE710B500BF502080F3C7
:100B00001188BFF34F8FBFF36F8F00BF03F06AFCF4
:100B100018B14FF080500449086000BF002080F3F6
:100B2000118800BF10BD000004ED00E02DE9FF4773
:100B30000FF2E80ADAE900C8DAE9029ACDE900C85A
:100B4000CDE9029ADFF8E4C0DCF800C0CCF38107FD
:100B500027B1012F09D0022F43D10DE0DFF8D0C01B
:100B6000DFF8D080C8F800C042E0DFF8CCC0DFF882
:100B7000C480C8F800C03BE0DFF8B0C0ACF1040CA2
:100B8000DCF800C00CF03F01DFF8A0C0ACF1040CB1
:100B9000DCF800C0CCF38812DFF890C0ACF1040C94
:100BA000DCF800C0CCF3014C0CF1010C4FEA4C0412
:100BB000DFF878C0ACF1040CDCF800C00CF4800362
:100BC000B3F5800F01D11C4800E01948B0FBF1FCDF
:100BD0000CFB02FCBCFBF4FCDFF85880C8F800C03A
:100BE00006E0DFF84CC0DFF84C80C8F800C000BF5A
:100BF00000BFDFF838C0DCF800C0CCF303151DF8E7
:100C00000560DFF830C0DCF800C02CFA06FCDFF825
:100C10002480C8F800C0BDE8FF8700000000000085
:100C2000000000000102030406070809083802401A
:100C30000024F4000000002000127A001CB55A487D
:100C4000006840F47000584908605848006840F057
:100C500001005649086000BF5448006800F00200D7
:100C60000028F9D051480830006800F00C0008282E
:100C70006ED100BF0020019002E00198401C01905D
:100C800001985028F9D3494808300068009000982E
:100C900020F0F0000090009840F080000090434960
:100CA0000831009808600020019002E00198401C83
:100CB000019001985028F9D33C4808300068009012
:100CC000009820F0F0000090009840F09000009014
:100CD00036490831009808600020019002E0019830
:100CE000401C019001985028F9D330480830006822
:100CF0000090009820F0F0000090009840F0A000D4
:100D000000902A490831009808600020019002E014
:100D10000198401C019001985028F9D323480830CD
:100D200000680090009820F0F0000090009840F0DB
:100D3000B00000901D490831009808600020019023
:100D400002E00198401C019001985028F9D300BF9F
:100D500016480830006820F0030014490831086084
:100D6000C82000F0C4FC11480068114908400F4930
:100D700008600846006820F48020086000200B49C5
:100D80000831086000BF09480830006800200028CA
:100D9000F9D108480549091D0860002003490C31B4
:100DA000086002F079FB1CBD88ED00E000380240CD
:100DB000FFFFF6FE1030002410B50121880702F075
:100DC0000CFE50B10121880702F004FE0021084604
:100DD00001F036F901200149087010BD040000201F
:100DE00010B50121074802F0F8FD50B10121054876
:100DF00002F0F0FD0021012001F022F9012002495A
:100E0000087010BD000C00400C00002000BFFEE781
:100E10000FB4054B10B503A9044A029800F0E4F89A
:100E200010BC5DF814FB0000852000088C00002039
:100E30002DED020B019820F0004001909DED000B7C
:100E400002B0704702E008C8121F08C1002AFAD198
:100E500070477047002001E001C1121F002AFBD13A
:100E6000704700002DE9FF5F82B00021DDE904300A
:100E7000020DDDF840B0034318D044F61050A2F242
:100E8000FF3242431514119801281FD0A5EB0B0027
:100E9000401C5FEA000A4FF000064E4FDFF8389121
:100EA000B046504615D5CAF1000413E0119801244C
:100EB0004AA3012801D16FEA0B010298119AC0E9F7
:100EC0000031C0E9024206B0BDE8F09FCBF100005E
:100ED000DFE704460021404A491842EB0450CDE9BF
:100EE000001012E0E00707D032463B464046494634
:100EF000FFF713FC8046894632463B4610461946AA
:100F0000FFF70BFC06460F466410002CEAD1DDE922
:100F10000401DDE90023BAF1000F06DAFFF7FDFB5B
:100F200042464B46FFF7F9FB05E0FFF7CFF9424693
:100F30004B46FFF7CBF904460E460022284BFFF73D
:100F400079FA03D84FF0FF30014607E00022254B25
:100F500020463146FFF73AFBFFF751FC102409E029
:100F6000002C0ADB0A220023FFF792FA039B30329F
:100F70001A55641E50EA0102F2D1641C039AC4F1AE
:100F800011031444119A012A03D0012208430DD100
:100F90000AE0084304D000204FF0110B119072E7D3
:100FA000A3EB0B056D1E0DE05B4504DD4FF0000269
:100FB00005F1010504E003DA4FF00002A5F1010597
:100FC000002AECD002981199C0E90231C0E900452D
:100FD00079E70000000014400000F03F30000000FE
:100FE0000000F0430000E03F2DE9FF4F95B09A4626
:100FF000884606460025EEE1252877D100242746BD
:10100000F94A0121039400E0044316F8013F203B14
:1010100001FA03F01042F7D130782A2811D06FF08E
:101020002F033078A0F13002092A16D8039A44F031
:10103000020402EB820203EB42021044761C03908E
:10104000EFE758F8042B0392002A03DA504244F4E5
:101050000054039044F00204761C30782E2816D1F8
:1010600016F8010F44F004042A280DD06FF02F0267
:101070003078A0F13003092B09D807EB870302EB86
:101080004303C718761CF3E758F8047B761C3078C6
:101090006C280FD006DC4C2817D068280DD06A28A1
:1010A00014D104E0742810D07A280FD10DE044F454
:1010B00000140AE044F4801401E044F4401472780F
:1010C000824202D104F58014761C761C30786628A2
:1010D0000BD013DC582877D009DC002875D04528C0
:1010E000F6D04628F4D047281AD193E118E06328B7
:1010F00035D0642879D0652812D18BE1702873D05F
:1011000008DC6728F1D069286FD06E280DD06F28D1
:1011100006D1ACE073282CD0752874D0782853D031
:101120005246179990476D1C54E1C4F302500228AF
:1011300009D003280DD0D8F8001004280DD00D6078
:1011400008F1040846E1D8F80010EA17C1E9005296
:10115000F6E7D8F800100D80F2E70D70F0E718F808
:10116000041B8DF8001000208DF80100EB460120D3
:1011700003E058F804BB4FF0FF3061074FF0000167
:1011800002D40DE009F101018946B9420FDA814527
:10119000F8DB1BF809100029F4D108E009F101017E
:1011A00089468142FADB1BF809100029F6D1039821
:1011B0005346A0EB090721463846179A00F080FAFB
:1011C000284400EB090507E044E008E10DE01BF8C6
:1011D000010B524617999047B9F10109F7D25346CE
:1011E00021463846179AF2E039E00A21C4F3025248
:1011F0004FF0000B0091022A06D058F8040BC117DB
:10120000032A09D00AE023E008F1070020F00702D2
:10121000F2E80201904605E000B2C117042A01D1AC
:1012200040B2C117002906DA0A460021404261EBAC
:1012300002012D2202E0220504D52B228DF8042084
:10124000012203E0E20701D02022F7E7914657E0B0
:101250000A2100E010214FF0000B00910BE010215B
:101260004FF0000B44F004040827009103E008202D
:101270004FF0000B0090C4F30252022A05D058F838
:10128000040B0021032A08D008E008F1070020F031
:101290000702F2E80201904603E080B2042A00D17E
:1012A000C0B24FF0000922072AD53278702A07D041
:1012B000DDF800C08CF0100C5CEA0B0C05D00EE0E1
:1012C00040228DF80420012208E050EA010306D0F4
:1012D00030238DF804308DF8052002229146009BC2
:1012E00083F0080353EA0B030AD150EA010201D14B
:1012F000620705D530228DF804204FF001097F1ECA
:101300003278582A04D039A20C920CAA02920BE02F
:101310003BA2F9E75B46009AFFF7BAF80C9B9B5C8F
:10132000029A521E0292137050EA0102F2D1029800
:1013300004A9081A00F1200B600702D524F48034B8
:1013400000E001275F4502DDA7EB0B0000E0002075
:1013500000EB0B01009003984944401A0390E0030E
:1013600006D453462146179A039800F0A9F905447C
:10137000002706E001A85246C05D179990476D1CF2
:101380007F1C4F45F6DBE0030CD553462146179AE8
:10139000039800F095F9054404E03020524617996F
:1013A00090476D1C0099481E00900029F5DC08E06C
:1013B0000298029952460078491C02911799904769
:1013C0006D1CBBF10001ABF1010BF1DC5BE100F046
:1013D00065F90544761C307800287FF40DAE19B00D
:1013E0002846BDE8F08F0000092801003031323373
:1013F0003435363738396162636465660000000051
:10140000303132333435363738394142434445463A
:1014100000000000600700D4062708F1070020F054
:101420000700F0E80223804603F0004C5FEA0C005E
:1014300001D097A009E0200501D596A005E0E007BE
:1014400001D095A001E0AFF24C001390307823F06A
:10145000004365280CD006DC452809D046281DD05D
:1014600047287FD13BE0662818D067287AD136E03C
:101470000021112F01DB112000E0781CCDE90001D3
:1014800004A90CA8FFF7EEFCDDE90D010C9A4FF062
:10149000000B07F10109109200914EE04FF000405F
:1014A0000097CDE9011004A90CA8FFF7DBFCDDE9EA
:1014B0000D020C9B0F994FF0000B91461093009278
:1014C00011B9791C00EB0109B7EB090003D4C0F195
:1014D000FF3B07F10109A9EB0700019042E0012F52
:1014E00000DA01270021112F01DD112000E038462C
:1014F000CDE9000104A90CA8FFF7B4FCDDE90D015A
:101500000C9A00914FF0000BB946109221070FD4AE
:10151000009A4A4503DA914601E0A9F10109B9F1BF
:10152000010F05DD109AA9F10101515C3029F4D0B9
:10153000B84202DA10F1040F03DA0121CDE90110FB
:1015400010E0002803DC8344A9EB000102E0411C09
:10155000494500DD8946A0EB0B00401C01904FF08F
:1015600000400290200705D40198484502DB4FF067
:10157000FF30019000208DF84B0002980DF14B07D1
:10158000B0F1004F25D002200C902B200D90029836
:1015900000280CDA404202902D200D9007E00A212D
:1015A0000298FEF75FFF3031029007F8011D0C9999
:1015B000481E0C900029F2DC02980028EFD1791E19
:1015C0000D980870307800F0200040F0450007F8D2
:1015D000020D11A8C01BC01D02901398007800B125
:1015E000012000EB0901019801EBE0710298014430
:1015F0000398401A401E0390E00306D45346214648
:10160000179A039800F05CF805441398007818B115
:101610005246179990476D1CE00323D55346214647
:10162000179A039800F04CF805441BE0BBF1000F3B
:1016300007DB0098584504DD1098179910F80B0047
:1016400001E0179930205246904701980BF1010BA9
:10165000401E05F10105019004D12E205246179934
:1016600090476D1CB9F10001A9F10109DEDC05E02C
:1016700017F8010B5246179990476D1C0299481EA6
:1016800002900029F4DC53462146179A03989EE6FF
:101690002D0000002B000000200000002DE9F0418B
:1016A000044600251E461746880404D405E0394642
:1016B0002020B0476D1C641EF9D52846BDE8F08196
:1016C0002DE9F041044600251E469046C80301D589
:1016D000302700E02027880404D505E0414638463D
:1016E000B0476D1C641EF9D52846BDE8F08108B5E9
:1016F0000021009102E00099491C009100EB80015B
:10170000009AB2EB410FF6D308BD000000B589B0D6
:1017100041F2190001F002FE40F6014001F0FEFD29
:101720004FF480720921354800F0BEFC4FF400727E
:101730000921324800F0B8FC4FF4807301220221E5
:101740002E4800F0E9FC4FF48073022200212B4860
:1017500000F009FD4FF4007301220221274800F038
:10176000DBFC4FF4007302220021244800F0FBFC54
:1017700006A9002000F046FB214800F043F80020B5
:101780008DF81C0001208DF81D008DF81F00002031
:101790008DF818000620ADF8220000208DF8190001
:1017A00008208DF81A0003208DF81B0006A91448A4
:1017B00000F0D0F80020ADF80E00ADF810000120C8
:1017C000ADF812000020ADF80400ADF80600ADF849
:1017D0000800ADF80A00ADF80C0001208DF81400E7
:1017E00001A800F02FF800220621142000F0D4FEFA
:1017F0000221034800F03FF909B000BD0004024097
:101800000064004010B504460A48844208D140F6FE
:10181000190001F0A7FD40F6190001F091FD07E065
:1018200040F61A0001F09EFD40F61A0001F088FD16
:1018300010BD000000640040014600208A69C2F328
:101840000210704710B50021837A012202FA03F1D9
:101850003E4A126842F001023C4B1A603B4A1C327D
:1018600012688A43394B1C331A60C289DAB9374A85
:101870000C3212688A43354B0C331A60C288344BE1
:1018800003EA024243881A434389304C403444F807
:10189000332082882E4B03EA024203881A4343898D
:1018A00004EBC3035A60C289012A1BD1274A0C32B8
:1018B00012680A43254B0C331A600288244B03EA52
:1018C000024243881A434389204C403444F8332071
:1018D00082881F4B03EA0242C3881A43438904EB00
:1018E000C3035A6082893AB9184A121D12688A43A2
:1018F000164B1B1D1A6006E0144A121D12680A439B
:10190000124B1B1D1A6002893AB9104A1432126830
:101910008A430E4B14331A6006E00C4A14321268E4
:101920000A430A4B14331A60027C012A06D1074A83
:101930001C3212680A43054B1C331A60034A1268B2
:1019400022F00102014B1A6010BD00000066004049
:101950000000FFFF70B502464FF6FF7300201468C9
:1019600024F002041460146844F00104146000E0E0
:101970005B1E546804F001040CB9002BF8D15468C4
:1019800004F001040CB9002074E00C784FF04045DD
:1019900005EA84744D784FF0407606EA05652C43DD
:1019A0008D784FF4702606EA05452C43CD784FF428
:1019B000E00606EA05552C434D896D1EC5F3090561
:1019C0002C43D4610C79012C04D1146844F08004B8
:1019D000146003E0146824F0800414604C79012C36
:1019E00004D1146844F04004146003E0146824F047
:1019F000400414608C79012C04D1146844F0200454
:101A0000146003E0146824F020041460CC79012CE5
:101A100004D1146824F01004146003E0146844F046
:101A2000100414600C7A012C04D1146824F008040A
:101A3000146003E0146844F0080414604C7A012C2C
:101A400004D1146844F00404146003E0146824F022
:101A500004041460146824F0010414604FF6FF734A
:101A600000E05B1E546804F001040CB1002BF8D1B7
:101A700003B1012070BD42690A4342617047000012
:101A8000F0B505460C46002600274CF28100844242
:101A900005D10021284600F04DF9064619E013480B
:101AA000844205D10121284600F044F9064610E0A1
:101AB0000F48844204D12846FFF7BEFE064608E0E0
:101AC00005EB14300068C4F384120121914000EA50
:101AD0000106686904F01F020121914000EA010734
:101AE00016B10FB10120F0BD0020FCE78400010019
:101AF000CB80010010B500F5D87303EB01131B6810
:101B000003F004031372137A3BB900F5D87303EBA7
:101B100001131B685B0D136006E000F5D87303EB3F
:101B200001131B68DB08536000F5D87303EB011346
:101B30001B6803F00203537200F5DA7303EB011321
:101B40001B681B0AD37400F5DA7303EB01131B68DF
:101B500003F00F03937200F5DC7303EB01131B68B2
:101B6000D37200F5DC7303EB01131B681C0A1473BA
:101B700000F5DC7303EB01131B681C0C547300F5B8
:101B8000DC7303EB01131B681C0E947300F5DE730A
:101B900003EB01131B68D37300F5DE7303EB011332
:101BA0001B681C0A147400F5DE7303EB01131B6839
:101BB0001C0C547400F5DE7303EB01131B681C0E40
:101BC000947421B9C36843F02003C36003E0036940
:101BD00043F02003036110BD30B502460B460021DF
:101BE000906800F08060B0F1806F00D110E09068E4
:101BF00000F00060B0F1006F01D1012108E09068B1
:101C000000F08050B0F1805F01D1022100E003219B
:101C1000032901D1032030BD02F5C07000EB011093
:101C2000006800F0010402F5C07000EB01100460D0
:101C3000187A88B918883E4C04EA40505C7A2043F0
:101C400002F5C07404EB01142468204302F5C0744B
:101C500004EB0114206013E06FF00704586804EAF5
:101C6000C0001C7A20435C7A204302F5C07404EB68
:101C700001142468204302F5C07404EB01142060B1
:101C800002F5C27000EB0110006820F00F0402F5AD
:101C9000C27000EB01100460987A082801D908206E
:101CA000987202F5C27000EB011000689C7A204324
:101CB00002F5C27404EB01142060987B4FF07F445E
:101CC00004EA00605C7B4FF47F0505EA044420438E
:101CD0001C7B2D1205EA04242043DC7A204302F504
:101CE000C47404EB01142060987C2C0404EA0060A6
:101CF0005C7C2D0205EA044420431C7C2D1205EA7D
:101D000004242043DC7B204302F5C67404EB011459
:101D1000206002F5C07000EB0110006840F0010483
:101D200002F5C07000EB01100460084673E7000084
:101D30000000E0FF0246002019B9D36803F0030059
:101D400004E0012902D1136903F003007047000089
:101D500000B52DED028B87B0F0EE408AB0EE608AC0
:101D6000CDED018A8DED008A40F202200290002024
:101D700003908DF811008DF8100008208DF81200E6
:101D80009DF804008DF813009DF805108DF81410CF
:101D90009DF806108DF815109DF807108DF8161097
:101DA0009DF800108DF817109DF801108DF818108F
:101DB0009DF802108DF819109DF803108DF81A1077
:101DC00002A90648FFF708FF40F2022104A0FFF72E
:101DD0001FF807B0BDEC028B00BD0000006400409E
:101DE0005B43414E2054585D2046656564626163E3
:101DF0006B2053656E743A2049443D307825580D68
:101E00000A00000010B5024609B900BFFEE732B172
:101E1000012A16D0022A20D0032A41D12EE0002325
:101E20004B71CB718B7140F2FF334B8100230B72EE
:101E30004B7002238B700023CB700B714B720B70B5
:101E400030E00123CB8100230B740B810B804B808E
:101E50008B80CB808B814B8124E0002005E0002427
:101E600001F10B031C54431CD8B20828F7D30023FC
:101E70008B724B600B724B720B6013E0002005E01D
:101E8000002401F10B031C54431CD8B20828F7D3DB
:101E900000238B724B600B72CB744B720B6001E0B2
:101EA00000BFFEE700BF10BD10B54FF4406001F069
:101EB00035FA41F2041001F031FA4FF400720721B3
:101EC0001C4800F0F1F84FF480620721194800F037
:101ED000EBF84FF4007301220221164800F01CF9C0
:101EE0004FF4007302220021124800F03CF94FF435
:101EF0008063012202210F4800F00EF94FF4806345
:101F0000022200210B4800F02EF90B4801F006FEDA
:101F10004FF4E131084801F089FD0421064801F041
:101F20007FFE0821044801F083FE034801F064FEAF
:101F300010BD000000000240001001402DE9F047F4
:101F400088B007460C4615461E46DDE9119ADDF8B5
:101F50004080384601F012FCADF804600020ADF876
:101F60000600ADF808000395ADF80A0001A938464F
:101F700001F0D8FC05A801F0F8FB0120ADF8140031
:101F80000020ADF81800ADF81C0005AA0021384665
:101F900001F088FA42460021384601F0A6FB602293
:101FA0000021384601F074FB08220021384601F078
:101FB000AFFB0021384601F024FD2021384601F016
:101FC00018FD204601F0DAFB0020ADF804004FF6C2
:101FD000FF70039001A9204601F0A4FC07212046D0
:101FE00001F01CFD4946204601F0E8FC00220521D5
:101FF0004FFA8AF000F0D0FA0121204601F0E6FC09
:10200000204601F07DFC384601F07AFC08B0BDE8BE
:10201000F087000070B505460C4635B922464FF4EE
:102020008071054800F073F804E0224680210348DF
:1020300000F06DF870BD0000000002400004024096
:102040002DE9F04107460E4617B90B4C250501E076
:102050000A4C0B4D012E06D1284601F056FC2046B5
:1020600001F053FC05E0204601F04AFC284601F04F
:1020700047FCBDE8F081000000040040000800407B
:10208000000C004070B504460D46E1B2054801F071
:1020900041FD00BF0721034801F0B3FD0028F9D03E
:1020A000204670BD00100140F0B503461C6A5D6A11
:1020B00000200DE00126864016403EB187000F2625
:1020C000BE40B443860001FA06F63443461CB0B263
:1020D0000828EFD3082011E00126864016405EB1A3
:1020E000A0F10806B7000F26BE40B543A0F10806D0
:1020F000B60001FA06F63543461CB0B21028EBD301
:102100001C625D62F0BD81617047C16270470AB1B7
:10211000816100E081627047F0B504460D461646C5
:102120002168E268002019E0012787401F409FB125
:102130004FEA400C032707FA0CF7B943470005FAAA
:1021400007F739434FEA400C032707FA0CF7BA4365
:10215000470006FA07F73A43471CB8B21028E3D302
:102160002160E260F0BDF0B50C461546012C03D1AC
:1021700046681E43466002E046689E4346608268A9
:1021800000210DE001268E401E403EB14F00032687
:10219000BE40B2434E0005FA06F632434E1CB1B2C1
:1021A0001029EFD38260F0BDFEB504460D461646F9
:1021B0004FF4406001F0B2F84FF4406001F0AEF827
:1021C00041F2010001F0AAF84FF4805001F0A6F8A6
:1021D0004023002202211448FFF79EFF40230222E1
:1021E00000211148FFF7BFFF402202210E48FFF7F0
:1021F0005BFF4FF48073012211460B48FFF78CFF01
:102200004FF48073022200210748FFF7ACFF1C2027
:1022100020212B462246CDE9006102904906034861
:10222000FFF78CFEFEBD00000000024000040040ED
:102230001CB5FEF703FDFEF779FC4FF4407000F08B
:102240000DFAFFF731FE11A0FEF7E2FD19A0FEF72F
:10225000DFFD22A224A127A0FEF7DAFD2BA0FEF7C6
:10226000D7FDFEF77BFB0020032103464FF40072ED
:10227000CDE900102FA1314802F092F830A0FEF70E
:10228000C7FD01F02BFE00BFFEE700000D0A3D3D3B
:102290003D3D3D3D3D3D3D3D3D3D3D3D3D3D3D3D6E
:1022A0003D3D3D3D3D3D3D3D3D3D3D3D3D3D3D3D5E
:1022B0003D0D0A00204744333246343037204D6FFD
:1022C000746F7220436F6E74726F6C2053797374E5
:1022D000656D20426F6F740D0A00000031313A3293
:1022E000373A303100000000466562202036203247
:1022F00030323600204275696C6420446174653A5E
:102300002025732025730D0A000000003D3D3D3D52
:102310003D3D3D3D3D3D3D3D3D3D3D3D3D3D3D3DED
:102320003D3D3D3D3D3D3D3D3D3D3D3D3D3D3D0D0D
:102330000A0000004D6F746F7200000091090008E0
:102340005B4D61696E5D205374617274696E6720C4
:102350005363686564756C65722E2E2E0D0A00003D
:1023600070B52DED0A8BB0EE409AF0EE609A83487E
:1023700090ED010A39EE400AB0EE408A804890EDB7
:10238000010A39EEC00AF0EE408A0024002518EE5A
:10239000100AFEF723F841EC1B0BB0EE4B0AF0EEEF
:1023A0006B0AFEF745FDB0EE40AAF0EE60AA9FED85
:1023B000750B53EC102B51EC1A0BFEF723F81CD2C3
:1023C00018EE900AFEF70AF841EC1B0BB0EE4B0A30
:1023D000F0EE6B0AFEF72CFDB0EE40AAF0EE60AA1C
:1023E0009FED680B53EC102B51EC1A0BFEF70AF81B
:1023F00003D20120BDEC0A8B70BD18EE100AFDF768
:10240000EDFF41EC1B0BB0EE4B0AF0EE6B0AFEF752
:102410000FFDB0EE40AAF0EE60AA9FED5A0B53EC10
:10242000102B51EC1A0BFEF705F802D80020534987
:10243000087018EE900AFDF7D1FF41EC1B0BB0EECF
:102440004B0AF0EE6B0AFEF7F3FCB0EE40AAF0EE9A
:1024500060AA9FED4C0B53EC102B51EC1A0BFDF7BF
:10246000E9FF02D8002046490870B5EEC08AF1EEB7
:1024700010FA01DB012000E0002001460020FFF7F8
:10248000C9FDF5EEC08AF1EE10FA01DB012000E093
:10249000002001460120FFF7BDFD18EE100AFDF7F0
:1024A0009DFF41EC1C0BB0EE4C0AF0EE6C0AFEF7FF
:1024B000BFFCB0EE40BAF0EE60BA9FED340B53ECC7
:1024C000102B51EC1B0BFDF701FF41EC1A0BFDF734
:1024D0006CFF044618EE900AFDF780FF41EC1C0BE0
:1024E000B0EE4C0AF0EE6C0AFEF7A2FCB0EE40BA79
:1024F000F0EE60BA9FED250B53EC102B51EC1B0B4B
:10250000FDF7E4FE41EC1A0BFDF74FFF054684B1E1
:10251000611E4FF0804000F0C3FF0121880701F0E9
:10252000F9F90121880701F0F9F901210020FFF7ED
:1025300087FD7DB1691E174800F0B2FF01211548E3
:1025400001F0E8F90121134801F0E8F901210846FA
:10255000FFF776FD02E0052001F05CFC07480078FB
:102560000028F8D0064800780028F4D0034880ED11
:10257000019A0348C0ED019A01203BE704000020C6
:102580000C000020000000E04D62503F00000040C1
:10259000E17A843F000C00402DE9F04103460D46EE
:1025A000164600240027A0462A48006800F4E06090
:1025B000B0F5E06F03D100BF4FF0040830E02548CC
:1025C000006800F4E060B0F5C06F03D101274FF060
:1025D000030825E01F48006800F4E060B0F5A06F34
:1025E00002D10227B8461BE01A48006800F4E060F8
:1025F000B0F5806F03D103274FF0010810E01548B4
:10260000006800F4E060B0F5407F03D104274FF08C
:10261000000805E04FF4A06000F020F80227B8465B
:10262000C7F1040005FA00F4C8F104010F20C84006
:102630003040044324010848C45403F01F01012022
:1026400088405911890001F1E021C1F80001BDE87D
:10265000F08100000CED00E000E400E002490143DD
:10266000024A1160704700000000FA050CED00E01E
:102670002DE9F04705460E462B4807682B48D0F851
:1026800000802B48D0F8009000202A49096881F882
:10269000590028480068001D01F0D2FA50B92548B9
:1026A000006890F82C100120884023490968814374
:1026B00021480160681CE0B9DEB100BF1F494868CD
:1026C0001C49096888601B4982680968CA60194901
:1026D0000968091D8268516016490968091D8160F1
:1026E000164A144909684A6111460968491C116073
:1026F00018E07C190F4800684460BC4206D20D48BF
:102700000168091D484601F0C5FA0BE00948016857
:10271000091D404601F0BEFA09480068844201D212
:1027200007480460BDE8F0872C0000201C00002052
:10273000200000201800002030000020A00300200E
:102740004800002010B5044601F0BEFA3448006885
:10275000401C334908603348006840B93148046080
:102760000846006801280DD100F034FA0AE02E482E
:10277000006838B92B480068C06AE16A884201D80D
:102780002848046029480068401C28490860084619
:102790000068606400BF94F82C1001208840244930
:1027A000096808432249086000BFE16A01EB810122
:1027B000204A02EB81014868A0608268E260211D26
:1027C000826851608160E16A01EB8101194A02EB84
:1027D00081026261E16A01EB8101164A52F821101F
:1027E000491CE26A02EB8202124B43F8221000BF3E
:1027F00000BF01F07BFA0C48006878B100BF0948BF
:102800000068C06AE16A884207D24FF080500A49E6
:102810000860BFF34F8FBFF36F8F00BF10BD000084
:102820002800002018000020340000204400002070
:1028300030000020D000002004ED00E010B501F0D1
:1028400043FA10480068D0B90F4801F013FA0F4856
:1028500001F010FA0C480E4908600C480D49086058
:10286000002210210A2001F009FC064908600846F0
:10287000006820B108A10348006801F081FA01F066
:1028800035FA10BD60000020B4030020C80300200A
:10289000580000205C000020546D725100000000C0
:1028A00010B516E001F010FA0C48C068C468201D8D
:1028B00001F0C6F90A480068401E09490860094845
:1028C0000068401E0749086001F010FA204600F039
:1028D000C0F8044800680028E4D110BD8C03002033
:1028E000280000202400002070B504460D46206C0E
:1028F00070B1216CE0680144E160D4E902108842C3
:1029000001D32168E1602846226CE168FDF7BAFC3A
:1029100070BD2DE9F04104460F4615464FF0000802
:10292000A66B206C48B9206800282CD1A06801F063
:1029300029FE80460020A06025E07DB93946226C42
:102940006068FDF79FFC216C606808446060D4E912
:102950000101884217D32068606014E03946226C78
:10296000E068FDF78FFC216CE068411AE1602168A6
:10297000E068884203D2216CA068411AE160022D10
:1029800001D106B1761E701CA0634046BDE8F081FF
:10299000F0B587B001260027002408E012A0005DF2
:1029A00003A9085503A8005D00B902E0641C102CBF
:1029B000F4DB00BF002510E00D4F0E4800EB850052
:1029C00000210B468022CDE9001003A9384601F012
:1029D000E7FC064606B902E06D1C012DECDB00BFEA
:1029E000304607B0F0BD000049444C4500000000EF
:1029F000F92A00084C0000202DE9FF5F07468846B1
:102A000016469946DDE90EABB00000F05FFB0546C7
:102A100075B15C2000F05AFB04462CB15C212046C5
:102A2000FDF749FC256304E0284601F06FF900E05A
:102A3000002454B100204B4632464146CDE900AB5C
:102A4000CDE90240384600F082F8204604B0BDE8E7
:102A5000F09F10B50446206B01F058F9204601F0B4
:102A600055F910BD0146084A126812680AB90122D8
:102A700000E000220A600A6822B9034A1268D2689C
:102A8000106800E0002070475800002030B54FF477
:102A9000F043144800F007042CB1C01D20F00700DB
:102AA000104C041B1B1B104C206000240E4D6C604E
:102AB000C218083A22F007020C4C226000240B4D89
:102AC0002D686C60094D2D682C600146541A4C60CD
:102AD000064C24680C60064D4C682C60054D4C6813
:102AE0002C6030BDDC0300206C000020740000204E
:102AF0007C0000207800002000BFFFF7D1FE0648D0
:102B000000680128F9D94FF0805004490860BFF3EC
:102B10004F8FBFF36F8FF0E7D000002004ED00E08F
:102B20002DE9F04106460D4617469846069C0DB91C
:102B3000246000E02760E66325640121204601F05F
:102B4000C3FA84F850800020A064BDE8F0812DE92C
:102B5000F05F81460E4690469A460A9F0C9C4FEACB
:102B60008801A522206BFDF79FFBA8F10100216BD6
:102B700001EB800B2BF0070B7EB1002507E0715DA8
:102B800004F134004155705D00B902E06D1C102D58
:102B9000F5D300BF002143200155202F00D31F276C
:102BA000E762E764201D01F072F804F1180001F0FB
:102BB0006EF82461C7F12000A06164625246494664
:102BC000584600F003FB20600B9808B10B98046096
:102BD000BDE8F09F10B5002407E004EB84010F4A24
:102BE00002EB810001F046F8641C202CF5D30C4860
:102BF00001F040F80B4801F03DF80B4801F03AF8BD
:102C00000A4801F037F80A4801F034F80448094945
:102C1000086004480849086010BD0000D00000208A
:102C20005003002064030020780300208C03002060
:102C3000A00300201C0000202000002010B5014649
:102C4000164800E0006803688B42FBD302464368E5
:102C500013448B4204D143684C68234443600146CB
:102C60000A464B6813440468A34211D10C4C036814
:102C70002468A34208D04B680468646823444B600E
:102C800003681B680B6005E0054B1B680B6001E0E7
:102C900003680B60884200D0016010BD6C0000200A
:102CA000740000202DE9F04104460D4616461F46EB
:102CB0004FF0000865602461B5420CD8F01BA16993
:102CC000884202D34FF0010811E0211D0948006835
:102CD00000F0E0FF0BE0BE4204D2BD4202D34FF051
:102CE000010804E0211D0448006800F0D3FF4046BD
:102CF000BDE8F0815C0000205800002070B505465A
:102D000000F0E2FFA86B08B9012400E0002400F005
:102D1000EDFF204670BDF1B50098846C0026A06BD5
:102D2000E16B884222D294F9455000226946204640
:102D3000FFF7EFFD0646681C60B9606A08B901201C
:102D400000E0002088B904F1240001F075FC60B1B6
:102D500001260AE000BF00F087FF0746BD4203D20C
:102D6000681C40B284F8450000BF00BF3046F8BD83
:102D700070B505460E460E480068C068C468201D40
:102D800000F05EFF94F8280000F0040028B13246FD
:102D90002946204600F0D6F805E094F8280000F017
:102DA000FE0084F828002046216A884770BD000094
:102DB0005800002070B586B0002002900390049067
:102DC000059077E00298002805DA03AED6E90020E6
:102DD000B168904700BF029800286BDB049C6069D3
:102DE00008B9012000E0002010B9201D00F028FFE4
:102DF00001A800F0D3F8054602980A2858D2DFE867
:102E000000F05705072E364706082F3700BF00BFD2
:102E100000BF94F8280040F0010084F828000398CF
:102E2000A269811803462A462046FFF73BFFA8B156
:102E300094F8280000F0040038B10398A2698118C2
:102E40002A46204600F07EF805E094F8280000F0BD
:102E5000FE0084F828002046216A884729E000BF48
:102E600094F8280000F0FE0084F8280021E000BF5C
:102E700094F8280040F0010084F828000398A0612D
:102E8000A06941192B462A462046FFF70BFF10E0A8
:102E900094F8280000F0020018B9204600F036FF30
:102EA00005E094F8280000F0FE0084F8280000E017
:102EB00000BF00BF002202A90448006801F0B0F979
:102EC00000287FF47FAF06B070BD000060000020D6
:102ED000F8B505460C4601F02DF8684600F05EF89E
:102EE0000646009820BB44B9B54206D801F030FC34
:102EF00031462846FFF73CFF1CE03CB10E48006815
:102F0000006808B9012000E000200446A91B224601
:102F10000A48006800F058FF01F01AFC50B94FF061
:102F2000805007490860BFF34F8FBFF36F8F01E0F8
:102F300001F00EFCF8BD00005C00002060000020E5
:102F400004ED00E070B504460D46164604E0A069A5
:102F500005442046216A8847A06941192B4632461C
:102F60002046FFF79FFE0028F1D170BD0948006898
:102F7000006808B9012000E0002020B14FF0FF30C8
:102F80000549086005E003480068C0680068024918
:102F9000086070471C0000204800002070B50446FF
:102FA00001F01AFA054607480068854204D200F08D
:102FB0000BF80120206001E000202060014805603E
:102FC000284670BD6800002070B508E00D48006814
:102FD000C06804684FF0FF312046FFF7C9FE09487A
:102FE0000068006808B9012000E000200028EDD04A
:102FF0000448056804480068024908600248056002
:1030000070BD0000580000205C00002000BF502070
:1030100080F31188BFF34F8FBFF36F8F00BF00BFE6
:10302000FEE708B500BF6846FFF71CFD04462046D2
:103030000099FFF74DFFFFF7BDFEF4E770B50446BA
:1030400000F042FE94F9455019E0A06C30B12046E2
:10305000FFF761FE88B100F003FF0EE0606A08B977
:10306000012000E0002038B904F1240001F0E4FA66
:1030700018B100F0F5FE00E003E0681E45B2002D37
:10308000E3DC00BFFF2084F8450000F02FFE00F0D5
:103090001BFE94F9445010E0206908B9012000E0BB
:1030A000002048B904F1100001F0C6FA08B100F0A0
:1030B000D7FE681E45B200E001E0002DECDC00BF49
:1030C000FF2084F8440000F011FE70BD2DE9F047A8
:1030D00004464FF00009DCB114F1090F01D90120B9
:1030E00000E0002098B9083404F0070080B104F033
:1030F0000700C0F10808C8F1FF30A04201D201204A
:1031000000E0002008B9444402E0002400E000246C
:1031100000F010FF2848006808B9FFF7B7FC01204D
:1031200000EBE470002841D0002C3FD02348006819
:1031300084423BD8224E3046056801E02E462D6879
:103140006868A04202D228680028F7D11A480068AF
:1031500085422BD0306800F1080928683060686823
:10316000001B102807D92F196868001B78606C6055
:10317000306838603760114968680968081A0F4973
:103180000860084600680F490968884203D20B4866
:1031900000680C490860686840F0004068600020E2
:1031A000286009480068401C0749086001F0D0FA0F
:1031B0004846BDE8F0870000740000207800002039
:1031C0006C0000207C00002080000020001F4FF0D9
:1031D00080730360001F21F001030360001F054B93
:1031E000036014380260001F6FF002030360203890
:1031F000704700000D3000082DE9F04F8CB00646F6
:1032000000200A903EA090E8004CC068CDE905BEC1
:10321000CDF810A007900FF2EC0ADAE9000ACDE928
:10322000020A0FF2E00ADAE9000ACDE9000A38489A
:103230000068C0F381000B900B9820B1012804D0E6
:10324000022828D103E0334927E0334925E03048FC
:10325000001F006800F03F072D48001F0068C0F302
:10326000881C2B48001F0068C0F30140401C4FEA37
:1032700040092748001F006800F48008B8F5800F57
:1032800001D1254B00E0234BB3FBF7F000FB0CF022
:10329000B0FBF9F101E01F4900BF00BF1C48006806
:1032A000C0F3031404A8055D21FA05F2184800686C
:1032B000C0F3822402A8055D22FA05F009901448A3
:1032C0000068C0F342341DF8045022FA05F008905B
:1032D00036B1012E06D0022E06D0032E0AD106E00A
:1032E0000A9108E00A9206E009980A9003E008981B
:1032F0000A9000E000BF00BF0A980CB0BDE8F08F54
:103300000000000000000000010203040607080995
:10331000083802400024F40000127A00074A02EB49
:103320009011D1F8001800F01F0301229A401143B8
:10333000024B03EB9012C2F80018704700300240B5
:10334000074A02EB9011D1F8001800F01F03012288
:103350009A409143024B03EB9012C2F80018704759
:1033600000300240074A02EB9011D1F8001800F03B
:103370001F0301229A401143024B03EB9012C2F843
:10338000001870470030024008B500203F49096826
:1033900041F480313D4A116000BF3C49096801F4A5
:1033A000003129B90146401C4FF6FF729142F4D119
:1033B0003649096801F4003131B900BF3349096861
:1033C00001F400310029F9D030494031096841F059
:1033D00080512E4A403211602D49096841F4404124
:1033E0002B4A1160294908310968284A08321160BE
:1033F0001146096841F4004111601146096841F421
:10340000A05111602349121F1160111F096841F07A
:103410008071121F116000BF1C49096801F0007122
:103420000029F9D01A49096841F48031184A11601D
:1034300000BF1749496801F480310029F9D01449C7
:10344000096841F40031124A116000BF104949680F
:1034500001F400310029F9D00C49083109680091C4
:10346000009921F003010091009941F002010091BF
:10347000064A08320099116000BF04490831096802
:1034800001F008010029F8D008BD00000038024012
:10349000007000400854400710B5FFF775FF10BDDD
:1034A000C162704710B531B101293FD002297DD0EA
:1034B00003297CD1BFE0036A23F00103036283691F
:1034C00023F003038361036A148823430362036ABE
:1034D00023F002030362036A9488234303626A4B66
:1034E000984202D0694B98421FD1036A23F004032B
:1034F0000362036A548823430362036A23F00803C8
:103500000362036AD48823430362436823F480730D
:1035100043604368148923434360436823F4007382
:1035200043604368548923434360ABE0036A23F05C
:1035300010030362836923F440738361036A148870
:1035400043EA04130362036A23F020030362036A5D
:10355000948843EA041303624B4B984202D04B4BCE
:10356000984226D1036A23F040030362036A548819
:1035700043EA04130362036A23F080030362036ACD
:10358000D48843EA04130362436823F480634360EE
:103590004368148943EA84034360436823F4006367
:1035A00043604368548943EA840301E002E068E031
:1035B000436067E0036A23F480730362C36923F006
:1035C0000303C361036A148843EA04230362036AA2
:1035D00023F400730362036A948843EA04230362BA
:1035E000294B984202D0294B984223D1036A23F4F5
:1035F00080630362036A548843EA04230362036A14
:1036000023F400630362036AD48843EA0423036259
:10361000436823F4805343604368148943EA0413E6
:103620004360436823F4005343604368548943EA8A
:103630000413436026E0036A23F480530362C369E2
:1036400023F44073C361036A148843EA04330362BA
:10365000036A23F400530362036A948843EA043341
:103660000362094B984202D0084B984208D1436844
:1036700023F4804343604368148943EA841343601E
:1036800000E000BF00BF10BD000001400004014089
:1036900031B101290CD0022913D0032922D118E01D
:1036A000836923F0700383618369134383611AE0A4
:1036B000836923F4E0438361836943EA02238361DE
:1036C00011E0C36923F07003C361C3691343C3618D
:1036D00009E0C36923F4E043C361C36943EA0223F9
:1036E000C36100E000BF00BF704731B1012906D0BF
:1036F000022906D0032908D105E0426306E082636F
:1037000004E0C26302E0026400E000BF00BF704753
:1037100031B101290CD0022913D0032922D118E09C
:10372000836923F0080383618369134383611AE08B
:10373000836923F400638361836943EA022383611D
:1037400011E0C36923F00803C361C3691343C36174
:1037500009E0C36923F40063C361C36943EA022338
:10376000C36100E000BF00BF7047002101804180BD
:103770008180C180018141817047000010B50446FD
:103780005C49601A8C426FD019DC5B49A4EB0100E4
:103790008C424ED009DCB4F1804F2ED057482044E3
:1037A000A0B3B0F5806F72D13AE0B0F5806F49D028
:1037B000B0F5006F4FD0B0F5406FF4D17BE0B0F5BD
:1037C000923F5BD009DCB0F5806F73D0B0F5644FE9
:1037D0000AD0B0F5684F5AD147E0B0F5943F57D0C2
:1037E000B0F5963F53D15CE04FF41060FFF7BAFD9F
:1037F0004FF41060FFF7A4FD79E04FF40060FFF78D
:10380000B1FD4FF40060FFF79BFD70E0FFE740F66D
:103810000100FFF7A7FD40F60100FFF791FD66E00C
:1038200040F60200FFF79EFD40F60200FFF788FD1C
:103830005DE040F60300FFF795FD40F60300FFF75B
:103840007FFD54E040F60400FFF78CFD40F60400D5
:10385000FFF776FD4BE040F60500FFF783FD40F6ED
:103860000500FFF76DFD42E02EE040F60110FFF786
:1038700079FD40F60110FFF763FD38E04FF4116069
:10388000FFF770FD4FF41160FFF75AFD2FE02DE0B8
:1038900040F61110FFF766FD40F61110FFF750FDDE
:1038A00025E040F61210FFF75DFD40F61210FFF71D
:1038B00047FD1CE011E040F60600FFF753FD40F61F
:1038C0000600FFF73DFD12E040F60700FFF74AFD56
:1038D00040F60700FFF734FD09E040F60800FFF767
:1038E00041FD40F60800FFF72BFD00E000BF00BFE0
:1038F00010BD0000001C0040000C004000FCFFBF99
:10390000016821F0010101607047016841F0010187
:103910000160704742690A4342617047CA430261CD
:10392000704700000A8882621D4A90420ED0B0F1B2
:10393000804F0BD01B4A904208D01B4A904205D0C2
:103940001A4A904202D01A4A90420BD1026822F0E1
:103950007002026002684B881A43026002688B881A
:103960001A4302608A68C262124A90420AD0124A1E
:10397000904207D0026822F4407202600268CB884D
:103980001A430260064A904202D0094A904201D18D
:103990000A7B0263426942F0010242617047000003
:1039A000000001400004004000080040000C0040FE
:1039B000000401400010004000140040826822F022
:1039C0007002826082680A4382607047C2680A435C
:1039D000C2607047CA43026170470246D06800EA7D
:1039E00001031069084010B10BB10120704700209D
:1039F000FCE7426822F07002426042680A4342607B
:103A0000704721B9826842F08002826005E0012996
:103A100003D1826822F0800282607047826822F0BF
:103A20000702826082680A43826070472DE9F0478E
:103A300004460D460027B846B94600263349601AA9
:103A40008C4235D00CDC32482044E8B1B0F5806FB0
:103A50001FD0B0F5006F21D0B0F5406F32D122E019
:103A6000B0F5806F29D0B0F5184F03D0B0F51C4FDA
:103A700028D104E00320FFF7BFFB074623E0032023
:103A8000FFF7BAFB07461EE00220FFF7B5FB07462B
:103A900019E00220FFF7B0FB074614E00220FFF711
:103AA000ABFB07460FE00220FFF7A6FB07460AE044
:103AB0000220FFF7A1FB074605E00220FFF79CFB71
:103AC000074600E000BF00BFE06800F4004070B1AE
:103AD000780000EB5500B0FBF5F64FF6F07006EA03
:103AE0000008C6F3420948EA0900A0600CE007EBB1
:103AF0005500B0FBF5F64FF6F07006EA000806F048
:103B00000F0948EA0900A060BDE8F087007800408E
:103B100000BCFFBFC1F308024260704710B5044605
:103B20003349601A8C424DD00CDC32482044E0B15D
:103B3000B0F5806F22D0B0F5006F31D0B0F5406F96
:103B400052D136E0B0F5806F45D0B0F5184F03D0B4
:103B5000B0F51C4F48D11AE040F60410FFF702FC04
:103B600040F60410FFF7ECFB3FE040F61100FFF7D2
:103B7000F9FB40F61100FFF7E3FB36E040F61200D8
:103B8000FFF7F0FB40F61200FFF7DAFB2DE040F6FE
:103B90000510FFF7E7FB40F60510FFF7D1FB24E027
:103BA00040F61300FFF7DEFB40F61300FFF7C8FBFB
:103BB0001BE040F61400FFF7D5FB40F61400FFF7BA
:103BC000BFFB12E040F61E00FFF7CCFB40F61E00E4
:103BD000FFF7B6FB09E040F61F00FFF7C3FB40F616
:103BE0001F00FFF7ADFB00E000BF00BF10BD0000ED
:103BF0000078004000BCFFBFC16841F40051C160C3
:103C0000704710B5024602EB9110006801F01F04E6
:103C10000123A340184008B1012010BD0020FCE79B
:103C20000A460021C16821F004011143C1607047B8
:103C30000A460021C16821F008011143C1607047A4
:103C400001460A69D1E901309860D1E90103586061
:103C50005068884201D1886850600020086110686F
:103C6000401E1060106870470148006870470000EF
:103C70002800002000F1080141604FF0FF31816011
:103C800000F10801C160016100210160704700215D
:103C90000161704710B502460B685C1C0CB91069D5
:103CA00007E002F1080000E04068446824689C4294
:103CB000FAD944684C604C68A160886041600A6130
:103CC0001468641C146010BD00BF502080F311887C
:103CD000BFF34F8FBFF36F8F00BF03480068401CD6
:103CE000014908607047000088000020064800680D
:103CF000401E054908600846006820B9002080F38E
:103D0000118800BF00BF70478800002070B50646CC
:103D10003546E6B1083D2C466068C00FB8B1206852
:103D2000A8B9606820F00040606000F003F908491D
:103D3000606809680844064908602046FEF77EFF6F
:103D400004480068401C0349086000F001FD70BD94
:103D5000780000208400002000204FF0E02108615E
:103D60008861064800684FF47A71B0FBF1F0401E9C
:103D70004FF0E021486107200861704700000020F3
:103D800010B502460B460021BBB1002012E00D4CDD
:103D900004EBC0046468944203D10A4C04EBC001F4
:103DA0000AE031B9074C54F8304014B9054C04EB23
:103DB000C001401C0828EAD300BF09B10B604A606B
:103DC00010BD0000900000202DE9F04105460E4690
:103DD00017462C46FFF778FF94F94400401C10B9B1
:103DE000002084F8440094F94500401C10B90020DC
:103DF00084F84500FFF77AFFA06B28B93A463146B0
:103E000004F1240000F042F82046FFF717F9BDE85E
:103E1000F081000070B50446002544B100F08AF836
:103E200000212046FEF724FC00F092FC05463DB937
:103E30004FF0805003490860BFF34F8FBFF36F8F7F
:103E400070BD000004ED00E003490968016003490A
:103E50000968416070470000400000202C000020ED
:103E600001200149086070473C00002070B50546FC
:103E70000C460548016818312846FFF70BFF012161
:103E80002046FEF7F5FB70BD1800002070B5044613
:103E90000E46154600BF60680F490968C8610E49A3
:103EA000826809680A620C490968183182685160A1
:103EB0000949096818318160074909688C622168DD
:103EC000491C216000BF0DB14FF0FF362946304636
:103ED000FEF7CEFB70BD00001800002010B5FEF705
:103EE00057FD0446012C02D100F0F0FC0446012CE1
:103EF00014D100BF502080F31188BFF34F8FBFF360
:103F00006F8F00BF4FF0FF3006490860012006495F
:103F1000086000200549086000F08CF8044800683B
:103F200010BD000048000020340000202C000020BC
:103F30005000002002480068401C0149086070479A
:103F4000540000201448006818B10120134908608B
:103F500021E000201149086000BF11480068B0FA54
:103F600080F0C0F11F0100BF01EB81020D4B03EB9C
:103F7000820042685268426000F10802436893423E
:103F800001D1C26842604268D268074B1A6000BF24
:103F900000BF184600687047540000203C00002015
:103FA00030000020D000002018000020FEB504469C
:103FB0000D46164640F60140FFF7B0F940F60140C5
:103FC000FFF7ACF941F20200FFF7A8F941F2030054
:103FD000FFF7A4F94023002202211348FEF79CF8C2
:103FE0004023022200211048FEF7BDF840220221A2
:103FF0000D48FEF759F88023012211460A48FEF7C2
:104000008BF88023022200210748FEF7ACF832200B
:1040100020212B462246CDE9006102900349044845
:10402000FDF78CFFFEBD000000040240000C0040C4
:104030000008004010B50E48006840F47F000C49AD
:1040400008600846006840F07F400860FFF784FE83
:10405000002008490860FCF7C7F80748006840F0EE
:10406000404005490860FCF7ABF8002010BD000097
:1040700020ED00E08800002034EF00E02DE9F84357
:1040800004460E4617460025DCB1681EB0FBF4F06E
:10409000B04216D304FB06F010F1550F11D804FB03
:1040A00006F909F15400FFF711F805464DB1A8468D
:1040B00008F154083B464246314620460095FEF73B
:1040C0002FFD2846BDE8F8832DE9F04105460E4650
:1040D00001272C46002C41D0E06B00283ED0B91EB1
:1040E000E06BB1FBF0F0216C884237D3FFF7ECFDB9
:1040F000D4E90F12206801FB0200A0600020A06339
:1041000020686060E06B401E226C216800FB021199
:10411000E160FF2084F8440084F845009EB92069DE
:1041200008B9012000E00020A8B904F1100000F057
:1041300083FA80B14FF080500A490860BFF34F8F77
:10414000BFF36F8F07E004F11000FFF793FD04F158
:104150002400FFF78FFDFFF7C9FD00E00027384678
:10416000BDE8F08104ED00E02DE9FF4F81B0064687
:1041700015461F46344600BF5021EFF3118081F3EE
:104180001188BFF34F8FBFF36F8F00BF8146A06BC5
:10419000E16B884201D3022F37D194F945A0A06B7F
:1041A00000903A4620460299FEF7B3FB0AF101005F
:1041B000E0B9A06C58B1022F01D1009810BB204685
:1041C000FEF7A9FDF0B1EDB1012028601AE0606AA8
:1041D00008B9012000E00020A0B904F1240000F09B
:1041E0002BFA78B175B1012028600BE000BFFFF712
:1041F0003BFD8346DA4504D20AF1010040B284F85F
:10420000450000BF4FF0010801E04FF0000800BF7B
:1042100089F3118800BF404605B0BDE8F08F00006B
:104220002DE9F74183B005460F464FF000082C46B4
:1042300000BFFFF749FDA66BF6B139462046FEF7F1
:1042400053FB701EA063206908B9012000E0002024
:1042500060B904F1100000F0EFF938B14FF0805070
:104260002F490860BFF34F8FBFF36F8FFFF73EFDFD
:10427000012006B0BDE8F081059818B9FFF736FDBA
:104280000020F6E7B8F1000F04D101A8FFF7DCFD2C
:104290004FF00108FFF72AFDFFF74CFEFFF714FD72
:1042A00094F94400401C10B9002084F8440094F9AB
:1042B0004500401C10B9002084F84500FFF716FDAA
:1042C00005A901A800F02EF8F0B92046FEF716FD6A
:1042D000A0B104F124000599FFF7C8FD2046FEF7C0
:1042E000ADFE00F035FA0028A3D14FF080500C4904
:1042F0000860BFF34F8FBFF36F8F9AE72046FEF73A
:104300009DFE00F025FA94E72046FEF797FE00F0A8
:104310001FFA2046FEF7F2FC00288AD00020A8E70A
:1043200004ED00E070B506460C46FFF7CDFC1948D9
:1043300002687068131A1848006890F8590030B184
:1043400000201549096881F8590001251EE0206800
:10435000401C08B9002519E01049306809688842F6
:1043600006D07068904203D80125002020600DE03F
:104370002068984207D92068C01A20603046FFF7AD
:1043800063FD002502E0002020600125FFF7AEFC60
:10439000284670BD2C00002018000020400000209E
:1043A0002DE9FC5F06460F4690469946DDE90CABC9
:1043B0004B46424639463046CDE900ABFEF71CFB82
:1043C000054625B12846FEF7BDF9012401E04FF06E
:1043D000FF342046BDE8FC9F014908687047000093
:1043E0002C0000202DE9F04100275B4800680028E0
:1043F0007DD15A480068451C5848056095B900BFF2
:104400005748D0F80080574800685549086055481B
:10441000C0F8008054480068401C53490860FEF70B
:10442000A5FD00BF5148006885427DD300BF4C48C0
:104430000068006808B9012000E0002020B14FF0BA
:10444000FF304A4908606EE045480068C068C468AB
:104450006668B54202D24548066064E000BF606904
:10446000D4E902128A60D4E902214A60211D42681F
:104470008A4201D1E1684160002262610168491EFF
:10448000016000BFA06AA0B100BFA06AD4E9071212
:104490008A60D4E907214A6004F1180142688A421F
:1044A00001D1216A41600022A2620168491E0160B7
:1044B00000BF00BF94F82C10012088402C490968E7
:1044C00008432B49086000BFE16A01EB8101294ADA
:1044D00002EB81014868A0608268E260211D826869
:1044E00051608160E16A01EB8101224A00E02BE02A
:1044F00002EB81026261E16A01EB81011D4A52F81F
:104500002110491CE26A02EB82021A4B43F8221086
:1045100000BF00BF1849E06A0968C96A884286D9A5
:10452000012784E700E000BF13480068C06A00EB81
:104530008000104951F82000012800D901270F48B8
:10454000006800B1012704E00D480068401C0C49D8
:1045500008603846BDE8F081540000202C0000209F
:104560001C00002020000020400000204800002007
:1045700030000020D0000020180000203C00002067
:104580003800002070B505462C460026002D4CD082
:10459000206D401E2065E16CE06A884245D0206DA8
:1045A000002842D1201DFFF74BFB40B994F82C1096
:1045B000012088401E49096881431D480160E06C64
:1045C000E062E06AC0F12000A06100BF94F82C1006
:1045D000012088401649096808431549086000BF52
:1045E000E16A01EB8101134A02EB81014868A06096
:1045F0008268E260211D826851608160E16A01EB9E
:1046000081010C4A02EB81026261E16A01EB8101E6
:10461000084A52F82110491CE26A02EB8202054B5B
:1046200043F8221000BF00BF0126304670BD0000D5
:1046300030000020D000002070B50346D868C16863
:1046400000BF886AD1E90745A560D1E907546560D4
:1046500001F118044568A54201D10C6A44600025A7
:104660008D620468641E046000BF3348006800283F
:1046700042D100BF4869D1E90245A560D1E90254A1
:1046800065600C1D4568A54201D1CC6844600025D9
:104690004D610468641E046000BF00BF91F82C40A7
:1046A0000120A040254C24682043244C206000BFFA
:1046B000CC6A04EB8404224D05EB840460688860B6
:1046C0008568CD600C1D85686C608460CC6A04EBE5
:1046D00084041B4D05EB84054D61CC6A04EB840416
:1046E000174D55F82440641CCD6A05EB8505144E22
:1046F00046F8254000BF11E000BF124C6068C86159
:1047000085680D6201F1180485686C6084600D4D48
:104710008D622C462468641C2C6000BF0A4CC86A59
:104720002468E46AA04204D901220120074C2060D9
:1047300000E00022104670BD540000203000002030
:10474000D000002078030020180000203C0000204A
:104750002DE9F04100240027FFF7B6FA0025524862
:104760000068401E504908600846006800286ED165
:104770004E48006800286AD064E04D48C068C468AC
:1047800000BFA06AD4E907128A60D4E907214A6011
:1047900004F1180142688A4201D1216A4160002275
:1047A000A2620168491E016000BF00BF6069D4E9D0
:1047B00002128A60D4E902214A60211D42688A42BD
:1047C00001D1E1684160002262610168491E016017
:1047D00000BF00BF94F82C100120884035490968BB
:1047E00008433449086000BFE16A01EB8101324AA5
:1047F00002EB81014868A0608268E260211D826846
:1048000051608160E16A01EB81012B4A02EB810278
:104810006261E16A01EB8101274A52F82110491CCB
:10482000E26A02EB8202244B43F8221000BF00BF71
:104830002249E06A0968C96A884203D901202049EF
:1048400041F825001A48006810B9012001E026E06F
:104850000020002891D00CB1FEF788FB19480668AB
:104860006EB100BFFFF7BEFD18B10120144941F839
:104870002500761E002EF5D1002012490860104850
:1048800050F8250058B1012700BF0C4800683807D0
:104890000D490860BFF34F8FBFF36F8F00BFFFF765
:1048A00025FA3846BDE8F081540000202800002099
:1048B0007803002030000020D000002018000020E5
:1048C0003C0000203800002004ED00E01CB500246E
:1048D000FDF7B4FF0848006858B108481F210023BD
:1048E0004FF48072CDE9001005A10748FFF758FD8D
:1048F000044620461CBD000060000020640000202B
:10490000546D722053766300233000082C49000850
:104910000000002090000000440E0008BC49000880
:1049200090000020507F0000540E0008007A030A17
:10493000000000000000803F000000000000803FF9
:104940000000000000000000000000000000000067
:104950000000000000000000000000000000000057
:104960000000000000000000000000000000000047
:104970000000000000000000000000001F00000018
:104980000000000000000000000000000000000027
:104990000000000000000000000000000000000017
:1049A0000000000000000000000000000000000007
:0C49B00000000000AAAAAAAA0000000053
:040000050800018965
:00000001FF
