:020000040800F2
:1000000030150020290200088B160008051500088D
:10001000891600080B050008D91A00080000000026
:10002000000000000000000000000000511900085E
:100030000D050008000000008D1600085319000887
:10004000430200084302000843020008430200087C
:10005000430200084302000843020008430200086C
:10006000430200084302000843020008430200085C
:10007000430200084302000843020008430200084C
:10008000430200084302000843020008430200083C
:10009000430200084302000843020008430200082C
:1000A000430200084302000843020008430200081C
:1000B000430200084302000843020008430200080C
:1000C00043020008430200084302000843020008FC
:1000D00043020008430200084302000843020008EC
:1000E00043020008430200084302000843020008DC
:1000F00043020008430200084302000843020008CC
:1001000043020008430200084302000843020008BB
:1001100043020008430200084302000843020008AB
:10012000430200084302000843020008430200089B
:10013000430200084302000843020008430200088B
:10014000430200084302000843020008430200087B
:10015000430200084302000843020008430200086B
:10016000430200084302000843020008430200085B
:100170004302000843020008430200080000000098
:10018000430200084302000800F002F800F03CF8C7
:100190000AA090E8000C82448344AAF10107DA45E2
:1001A00001D100F031F8AFF2090EBAE80F0013F0F8
:1001B000010F18BFFB1A43F001031847441B00004E
:1001C000641B0000103A24BF78C878C1FAD85207DF
:1001D00024BF30C830C144BF04680C6070470000C1
:1001E0000023002400250026103A28BF78C1FBD840
:1001F000520728BF30C148BF0B6070471FB501F0E0
:100200006DFD1FBD10B510BD00F046F91146FFF79A
:10021000F5FF01F00DFD00F064F903B4FFF7F2FF04
:1002200003BC00F06BF9000009488047094800470B
:10023000FEE7FEE7FEE7FEE7FEE7FEE7FEE7FEE796
:10024000FEE7FEE704480549054A064B70470000F3
:10025000FD19000889010008300500203015002034
:10026000300D0020300D002053EA020C00F06980B0
:100270002DE9F04B4FF00006002B1FBFB3FA83F5BA
:1002800003FA05F424FA05F65E4012BF1643B2FAEB
:1002900082F502FA05F4C5F120051EBF22FA05FC1D
:1002A00044EA0C04203556EA044C4FEA144418BFC3
:1002B000641C4FF000084FF00009904271EB030CF2
:1002C00039D3002919BFB1FA81F701FA07F6B0FA5C
:1002D00080F700FA07F6C7F120071EBF20FA07FCD7
:1002E00046EA0C062037B6FBF4FCA7EB0507103FE7
:1002F00007F01F0BCBF120062CFA06F60CFA0BFBCD
:1003000044BFB3460026202FA4BF5E464FF0000B2B
:100310005BEA060C08BF4FF0010B19EB0B0948EB29
:100320000608ABFB027C06FB02CC0BFB03CCC01B1C
:1003300071EB0C01C1E70B46024641464846BDE859
:10034000F08B13B54FF000004FF00001AFF30080C9
:10035000BDE81C407047032A40F2308010F0030CC7
:1003600000F0158011F8013BBCF1020F624498BF08
:1003700011F801CB00F8013B38BF11F8013BA2F1A5
:10038000040298BF00F801CB38BF00F8013B11F020
:10039000030300F04F80083AC0F0088051F8043B96
:1003A000083A51F804CBA0E80810F5E7121D5CBF2D
:1003B00051F8043B40F8043BAFF30080D20724BF60
:1003C00011F8013B11F801CB48BF11F8012B24BFF4
:1003D00000F8013B00F801CB48BF00F8012B704743
:1003E0004FF0000200B5134694469646203922BFCE
:1003F000A0E80C50A0E80C50B1F12001BFF4F7AF19
:10040000090728BFA0E80C5048BF0CC05DF804EBFA
:10041000890028BF40F8042B08BF704748BF20F868
:10042000022B11F0804F18BF00F8012B7047704766
:100430007047704710B5203AC0F00B80B1E81850F3
:10044000A0E81850B1E81850A0E81850203ABFF4BE
:10045000F5AF5FEA027C24BFB1E81850A0E818505D
:1004600044BF18C918C0BDE810405FEA827C24BFB1
:1004700051F8043B40F8043B08BF7047D20728BF3F
:1004800031F8023B48BF11F8012B28BF20F8023B8E
:1004900048BF00F8012B7047754600F02BF8AE46B8
:1004A00005006946534620F00700854618B020B580
:1004B000FFF7C8FEBDE820404FF000064FF00007F0
:1004C0004FF000084FF0000BAC46ACE8C009ACE8B8
:1004D000C009ACE8C009ACE8C00921F007018D46AD
:1004E000704710B50446AFF300802046BDE81040C9
:1004F000FFF793BE004870473000002001491820E4
:10050000ABBEFEE7260002007047FEE7704772B6FA
:10051000FEE70000D54A0329136823F440731360F3
:100520004FF4407338BF0B02116819431160116812
:1005300021F078011160116841EAC00040F002002A
:100540001060106840F480301060704715480168F2
:1005500011F4007F0FD0016821F40071016001687F
:1005600041F400610160016821F4006101600168EB
:1005700041F400710160016811F4806F08BF704799
:10058000016821F480610160016841F480510160DB
:10059000016821F480510160016841F480610160CB
:1005A000704700BF003C0240B0490A6822F4407224
:1005B0000A600A6842F004020A600A6842EA0020FF
:1005C00040F480300860704710B5A84C216821F4D1
:1005D00040712160216841F440712160216841F03F
:1005E000010121600260BFF36F8F436010BD00BF47
:1005F0009E4A136823F440731360136843F48073B6
:100600001360136843F0010313600180704700BF5B
:10061000964A136823F440731360136843F400731D
:100620001360136843F0010313600160704700BF5B
:100630003148016811F0100F06D08B49CA6942F0A9
:100640001002CA6110210160016811F0200F06D06C
:100650008549CA6942F00802CA6120210160016827
:1006600011F0400F06D08049CA6942F00402CA6105
:1006700040210160016811F0800F06D07A49CA69F3
:1006800042F00202CA6180210160016811F0020F8C
:1006900008BF70477449CA6942F02002CA6102214A
:1006A0000160704770B504466F480021C16100F0D9
:1006B000C9F90546661C1048016811F4803F09D04D
:1006C000002EF8D024B100F0BDF9401BA042F2D9B1
:1006D00003200EE0016811F0010F1CBF0121016031
:1006E000006810F0F20F03D0FFF7A2FF012000E036
:1006F0000020C0B270BD00BF0C3C024070B5054682
:100700006E1C00F09FF904461EB1EE4800780544C7
:1007100001E04FF0FF3500F095F9001BA842FAD335
:1007200070BD00BF2DE9F843DFF83C8105468946DE
:1007300098F81800012801D102263EE0012088F82F
:1007400018004CF25030FFF7ADFF064696BB4FF055
:10075000FF30C9F800002868444C01280CD1287CDF
:10076000FFF722FF4CF25030FFF79CFF064620684F
:1007700020F0040020601BE0A868074610E0297CF8
:100780003846FFF7C7FE4CF25030FFF78BFF0646A6
:100790002068002E20F07A00206007D1A868013779
:1007A000E96808448742EAD3002601E0C9F80070EE
:1007B000FFF7CCFE002088F81800304601B0BDE8F5
:1007C000F08300BF2948016841F00041016000202A
:1007D000704700BF2DE9F041DFF88C8007461E46C8
:1007E00014460D4698F81800012804BF0220BDE801
:1007F000F081012088F818004CF25030FFF752FFCA
:1008000060BB1A49022F0FD0012F13D0C7B9086857
:100810000F4620F44070086008680860086840F0DF
:10082000010008602C7011E00F4628462146FFF7B2
:10083000EFFE0BE00F46A1B22846FFF7D9FE05E018
:100840002846224633460F46FFF7BEFE4CF2503094
:10085000FFF728FF396821F001013960002188F88D
:100860001810BDE8F08100BF10000020103C0240CD
:100870000648C168B1F1FF3FC4BF0020704704497A
:10088000016004490160C068C00F7047043C024029
:1008900023016745AB89EFCD2DE9FC4F5B4A082763
:1008A0004FF0010E4FF0030A4FF0000B4FF000081D
:1008B000904208BF0727564A02444FEAB223072B4B
:1008C00038BF4FEAB22700970027102F08BFBDE8B6
:1008D000FC8F0A680EFA07F4224200F090804B6801
:1008E00003F00302551E012D15D8D0F808C00AFAEE
:1008F00008F52CEA050CCD6805FA08F545EA0C0563
:100900008560C3F3001505FA07FC4568A54345EA71
:100910000C05456001E0032A1DD0C6680AFA08F5F7
:10092000022A26EA05068D6805FA08F546EA050654
:10093000C66010D1374D0BF01C020F23934005EA1F
:1009400057060644356A25EA03030D6905FA02F2E3
:100950001A4332624B68056803F003020AFA08F68C
:1009600013F4403F02FA08F225EA060642EA0602BC
:10097000026044D000220192274A136843F4804366
:100980001360126802F48042019227F00302234BA5
:10099000019E234D0BF00C0602EB03090F2259F8C0
:1009A00005C002FA06FE009A2CEA0E0C02FA06F6C0
:1009B0004FF0010E46EA0C0649F805609A684E6849
:1009C000A24316F4801F18BF224316F4001F9A603A
:1009D000144A156825EA040518BF254316F4003F9C
:1009E00015605A6822EA040218BF224316F4803FB9
:1009F0005A601A6822EA040218BF22431A600BF1F7
:100A0000040B08F1020801375FE700BF001C024039
:100A10000000FEBFFCFFFF7F44380240003C014065
:100A200008FCFFFF0C3C0140426902EA01039143CC
:100A300041EA034181617047002A08BF09048161CE
:100A4000704700001F488068704700BF1D4801784C
:100A5000826811448160704780B50B48016841F499
:100A600000710160016841F480610160016841F436
:100A700080710160032000F06FF80F2000F006F88D
:100A800000F022F8002080BD003C024070B50D4E01
:100A900004464FF47A713078B1FBF0F08B49096865
:100AA000B1FBF0F000F0B8FC01250F2C08D838B9E4
:100AB0004FF0FF3021460022002500F021F874603D
:100AC000284670BD0000002082B0002001900B4934
:100AD0004A6842F480424A604A6802F480420192C5
:100AE000019A0090086840F080500860086800F0A3
:100AF00080500090009802B0704700BF403802401C
:100B0000B0B5144C1A4D00F00F03B0F1FF3FA3F144
:100B100004032B4403F10C03C8BF03192868C0F376
:100B20000220051DC41E80F00700072D4FF00105AF
:100B300038BF0024042828BF042005FA00F001383B
:100B4000084005FA04F10F31A040114008430001AC
:100B50001870B0BD00E400E005494FF6FF030A68D5
:100B60001A4060F30A22034810430860704700BF30
:100B70000CED00E00000FA052DE9F041044688463E
:100B8000002C00F08480444FD7F8000400F00700E8
:100B9000404507D287F80084D7F8000400F007002A
:100BA000404574D1206810F0020F11D0410742BFB8
:100BB000B96841F4E051B960010742BFB96841F436
:100BC0006041B960B968A26821F0F0011143B960D1
:100BD000C0072BD06068811E022904D2396811F049
:100BE000007F0BD153E0012804D1396811F4003F94
:100BF00004D14CE0396811F0020F48D0B96821F0F7
:100C000003010843B860FFF71DFF064641F288352F
:100C1000B868616800F00C00B0EB810F06D0FFF7F8
:100C200011FF801BA842F3D9032031E0D7F800045C
:100C300000F00700404507D987F80084D7F8000482
:100C400000F00700404522D1206810F0040F05D0C5
:100C5000B968E26821F4E0511143B960000706D594
:100C6000B868216920F4604040EAC100B86000F033
:100C700033F8B968094AC1F30311515CC8401349FC
:100C8000086007480068FFF701FF002000E001202E
:100C9000C0B2BDE8F08100BF00380240E61C000889
:100CA0000400002009480B4A006809490968C1F39B
:100CB0008221515CC84070470448064A00680449D4
:100CC0000968C1F34231515CC84070470C000020F4
:100CD00008380240F61C000810B5F14C606800F0BE
:100CE0000C0213481349082A04D0042A04BF0846FA
:100CF00010BD10BD2068236800F03F02206813F487
:100D0000800FC0F3881006D109490023A0FB010120
:100D1000FFF7AAFA02E04843B0FBF2F02168022292
:100D2000C1F3014102EB4101B0FBF1F010BD00BF86
:100D30000024F40000127A002DE9F84F8246BAF13F
:100D4000000F00F064819AF80000D44ED44FC00721
:100D50004AD0786800F00C00042807D1306810F4FD
:100D6000003F41D0DAF80400F0BB50E1786800F0B1
:100D70000C00082803D1386810F4800FEED1DAF89F
:100D80000480B8F5803F06D03068B8F5A02F13D1A5
:100D900040F480203060306840F480303060FFF7ED
:100DA00051FE0546306810F4003F1DD1FFF74AFEA2
:100DB000401B6428F6D9C3E020F4803030603068EE
:100DC00020F480203060FFF73DFE0546B8F1000FAB
:100DD000E8D1306810F4003F06D0FFF733FE411B26
:100DE00003206429F5D913E19AF80000AD4C80077F
:100DF00031D5786810F00C0F1CD0786800F00C002A
:100E0000082804BF386810F4800F13D0DAF80C00FB
:100E1000002800F0978001202060FFF713FE0546B0
:100E2000306810F0020F0ED1FFF70CFE401B0228B5
:100E3000F6D985E0306810F0020F1CBFDAF80C001C
:100E4000012840F0E4803068DAF8101020F0F80053
:100E500040EAC10030609AF80000000722D5DAF8B5
:100E6000140078B10120C4F8800EFFF7EBFD0546B1
:100E7000386F10F0020F15D1FFF7E4FD401B022878
:100E8000F6D95DE00020C4F8800EFFF7DBFD0546D3
:100E9000386F10F0020F05D0FFF7D4FD401B022879
:100EA000F6D94DE09AF80000A34640077CD5F86BD0
:100EB0004FF0000810F0805F0CD1CDF800804FF0AB
:100EC0000108F86B40F08050F863F86B00F0805038
:100ED000009000987448305810F4807F12D1724806
:100EE000315841F480713150FFF7ACFD05466E4832
:100EF000305810F4807F05D1FFF7A4FD401B022875
:100F0000F5D91DE0DAF80890B9F1010F06D0F86EB6
:100F1000B9F1050F27D140F00400F866F86E40F0F3
:100F20000100F866FFF78EFD054641F28834F86E41
:100F300010F0020F31D1FFF785FD401BA042F6D91A
:100F4000032065E000202060FFF77CFD0546306847
:100F500010F0020F3FF47FAFFFF774FD411B032039
:100F60000229F4D954E020F00100F866F86E20F070
:100F70000400F866FFF766FD0546B9F1000FD4D10D
:100F800041F28839F86E10F0020F06D0FFF75AFDD3
:100F9000411B03204945F5D93AE0B8F1010F02BFE2
:100FA000F86B20F08050F863DAF81840002C72D00B
:100FB000786800F00C0008282ED1012C27D0386862
:100FC000DAF81C1000F480028A4220D1DAF82010EE
:100FD00000F03F028A421AD1DAF8242047F6C071A5
:100FE0000140B1EB821F12D1DAF828104FF6FF72E0
:100FF000C903914300F44032A1F580318A4206D101
:10100000DAF82C1000F07060B0EB016F43D00120D3
:10101000C0B201B0BDE8F08F0020CBF86000FFF750
:1010200011FD0546022C0BD15C46306810F0007FA4
:1010300011D0FFF707FD411B03200229F5D9E7E78F
:10104000306810F0007F26D0FFF7FCFC411B032026
:101050000229F5D9DCE70AF11C052FCD0843D90395
:1010600040EA82104FF6FF72914340EA0560A1F515
:1010700080310843386001202066FFF7E3FC044616
:10108000306810F0007F06D1FFF7DCFC011B032065
:101090000229F5D9BCE70020BAE700BF00380240BA
:1010A00004380240000047420038FEFF70B5044695
:1010B0004CB1D4F824C0BCF1000F06D0002121614E
:1010C00004F1140107E0012550E06168B1F5827F69
:1010D00003D004F11C0100220A6000254FF0000E2D
:1010E000A56294F8511041B9204684F8505000F0A0
:1010F0003FF8D4E909C101F4005E022284F85120CE
:101100002268136823F040031360D4E90130D4E966
:10111000031603F4827300F4044001F400611843E1
:10112000084306F002010843616901F00101084328
:10113000A16901F400731843E36903F0380318430D
:10114000236A03F08003184340EA0E001060042075
:1011500000EA11400CF0100108435060D06920F4FF
:101160000060D0610120656584F85100284670BD9B
:101170002DE9F04387B0044602A81421FFF730F9A7
:1011800020681E4CA4F55041884233D14FF000082E
:101190004FF0020902AD03260527CDF80480D84898
:1011A000416941F480514161416901F480510191EB
:1011B0000199CDF80480016841F0010101602946E0
:1011C000006800F0010001900198202002900120A9
:1011D000CDF80C900490204605960697FFF75CFB2F
:1011E000C0202946CDE902092046CDE904860697AC
:1011F000FFF752FB07B0BDE8F08300BF00000240DC
:101200002DE9F8431E4615460F460446FFF71AFC23
:1012100094F85110814601290BD06068B0F5827FA7
:1012200015D104294FF0020004BFA168002940F045
:10123000CC800120002F00F0C880002D00F0C58078
:10124000002E00F0C28094F85000012801D1022045
:10125000BBE00120DDF8208084F8500094F85100B4
:1012600004281CBF052084F8510000206065A56398
:10127000E687A6872763E686A686C4E9100020686D
:10128000016811F0400F02BF016841F040010160A8
:101290006268E368711EB1FA81F14909B2FA82F21B
:1012A000B3F5006F4FEA521241EA02013CD1012925
:1012B00006D137F8021BC1602763E08E0138E08653
:1012C000012608F10105E08E18B9E08F002800F032
:1012D00080802068816811F0020F0CD0E18E012E11
:1012E00009D141B1216B002631F8022BC260216384
:1012F000E18E0139E186816811F0010F1CBFE18F99
:10130000002908D0C068A16B012621F8020BA16357
:10131000E08F0138E087FFF795FB002DD3D0A0EBDD
:1013200009004045CFD349E0012907D1397801733D
:10133000206B01302063E08E0138E086012608F141
:101340000105E08E10B9E08F002842D02068816846
:1013500011F0020F0ED0E18E012E0BD151B1216B95
:10136000002609780173206B01302063E08E01387C
:10137000E0862068816811F0010F1CBFE18F002911
:1013800009D0C068A16B01260870A06B0130A06372
:10139000E08F0138E087FFF755FBA0EB09002946F5
:1013A00040454FF0000028BF0120002D18BF01214B
:1013B000B8F1000F02D008400128C2D1012084F802
:1013C0005100002084F850000320C0B201B0BDE8F5
:1013D000F083204641464A4600F05AF930B12020B9
:1013E0006065002084F850000120EEE7A06838B95D
:1013F000002000902068C1680091806800900098EB
:10140000012084F85100002084F85000606D00280D
:1014100018BF0120D9E70000411E0020B0EB116F7A
:101420001CBF012070474B4AF023516002490B70EA
:10143000072190601160704723ED00E010B504466D
:101440004CB394F8410028B9002084F840002046AD
:1014500000F024F8242084F841002068C16821F4B9
:101460000051C160204600F0D1FA2068016921F4E2
:1014700090410161416921F02A014161C16841F453
:101480000051C16000202021606484F8411084F87C
:101490004210606310BD012010BD000010B586B081
:1014A000044601A81421FEF79BFF2168754881427C
:1014B00024D1002100F570400091B84A536943F0EF
:1014C00010035361536903F010030093009B0091D4
:1014D000136843F001031360126802F001020092E6
:1014E000009A4FF4C06201920222CDE90221032149
:1014F00004910721059101A9FFF7CEF906B010BDAF
:1015000030380240FEE700000168114A1140B1F195
:10151000005F18BF704710B572B600224FF0FF335E
:101520000C4C22606260A26006E004EB8201013292
:10153000C1F87031C1F87032082AF6D10649086046
:101540004168006880F3088862B6BDE8104008472B
:101550000000FE2F10E000E008ED00E02DE9F04370
:1015600087B0002700224FF4C066069701978B488A
:10157000016841F020010160016801F02001019142
:1015800001990197016841F080010160016801F053
:101590008001019101990197016841F00101016009
:1015A000016801F00101019101990197016841F081
:1015B000020101604FF4C061006800F00200019078
:1015C0000198B24C04F580552846FFF735FA2046BD
:1015D0004FF4804101224FF480484FF00109FFF79A
:1015E0002BFACDE9026902AE2846CDE904773146EF
:1015F000FFF752F920463146CDE90289CDE904775B
:10160000FFF74AF907B0BDE8F08300BF80B588480E
:101610000E49022201604FF4827141600021C0E94D
:1016200002110261012242614FF400728162C0E93D
:101630000811C0E906210A21C162FFF737FD18B180
:10164000BDE88040FEF763BF80BD00BF00300140B1
:1016500080B50B480B494FF4E13200234FF00C0CDE
:1016600080E80E00C0E90333C0E905C3C361FFF79A
:10167000E5FE18B1BDE88040FEF749BF80BD00BF60
:10168000E800002000100140FEE7FEE77047000080
:101690007CB50D4616460221012204462B460096D3
:1016A00000F0F6F828B1606D032640F02000606578
:1016B00023E0A64800681249B0FBF1F04FF47A71BC
:1016C00010FB01F001906068B0F5827F0AD12046DE
:1016D000802100222B460096002600F0D9F8002831
:1016E000E1D10AE0019838B10198013801902068F1
:1016F000806810F0800FF5D10026F0B202B070BD06
:1017000000366E012DE9F0410646604814460F464A
:101710004FF4804100228046FFF78EF9384D0320B8
:10172000A847C7F30740A847C7F30720A847F8B260
:10173000A84705E0FF2000F065F806F8010B013C22
:101740002004F7D140464FF480410122BDE8F0412A
:10175000FFF772B910B586B00020059000900F49D0
:101760000A6842F002020A60096801F00201009171
:1017700000994FF4804101910121CDE9021002202E
:1017800001A90490414C2046FFF786F820464FF40B
:1017900080410122FFF750F906B010BD30380240F9
:1017A0002DE9F04114460F46054600F05BF8374836
:1017B0004FF4804100228046FFF73EF9104E022090
:1017C000B047C7F30740B047C7F30720B047F8B2A8
:1017D000B047B4F5807F28BF4FF4807404E015F85B
:1017E000010B00F00FF8013C2004F8D140464FF403
:1017F00080410122FFF720F9BDE8F04100F01AB85E
:1018000005180008E0B58DF8070000200DF107016C
:101810000DF1060201238DF806004FF0FF30009015
:101820000348FFF7EDFC9DF8060002B080BD00BF45
:101830009000002010B5154C4FF480410022204646
:10184000FFF7FAF80520FFF7DDFFFF20FFF7DAFFCB
:10185000C007FAD120464FF480410122BDE8104074
:10186000FFF7EAB810B5094C4FF48041002220463A
:10187000FFF7E2F80620FFF7C5FF20464FF480414E
:101880000122BDE81040FFF7D7B800BF00040240B6
:101890002DE9FC470A9F984615460E460446FFF779
:1018A000D1F8381A00EB080AFFF7CCF88146274830
:1018B00008F101070068C0F3CB3000FB0AF001908B
:1018C0000EE06FB1FFF7BEF8A0EB0900504512D251
:1018D000019818B101980138019001E04FF0000A19
:1018E000206880683040801BB0FA80F04009A84230
:1018F000E7D1002026E02068416821F0E001416046
:101900006168B1F5827F0AD1A168B1F5004F18BFB7
:10191000B1F5806F03D1016821F040010160A16A37
:10192000B1F5005F07D1016821F400510160016841
:1019300041F400510160012084F85100002084F836
:1019400050000320C0B202B0BDE8F0870C000020B8
:101950007047FFF77BB80000B0B592B0002401A833
:1019600014210A94CDE90844FEF73AFD00940225BB
:101970002048016841F080510160006800F080500B
:101980000090009800941C48016841F48041016077
:10199000006800F4804000900098092006904FF401
:1019A0008030079001200B904FF480000C950D9033
:1019B00008200E904FF4A870CDE90F050420119077
:1019C00006A8FFF7B9F908B172B6FEE70F200521A6
:1019D000CDE901054FF4A050039404904FF48050DA
:1019E000059001A8FFF7C8F808B172B6FEE712B07B
:1019F000B0BD00BF4038024000700040024801689E
:101A000041F470010160704788ED00E0B0B5044614
:101A100049F20C6520680169E26821F440511143E4
:101A20000161D4F808C0D4E90423D4F81CE0C168EB
:101A300042EA0C02A9431A4342EA0E021143C16072
:101A40004169A26921F440711143416140F4806011
:101A50002049884202D1FFF72FF901E0FFF722F970
:101A6000E26963681921A0FB0101B2F5004F16D1AC
:101A70005A00DB0FFEF7F8FB64216FF06303B0FB45
:101A8000F1F202FB0300322303EBC000B0FBF1F1E3
:101A90004FF4F87000EA410001F0070113E09A00EA
:101AA0009B0FFEF7E1FB64216FF06303B0FBF1F2E3
:101AB00002FB0300322303EB0010B0FBF1F101F055
:101AC000F00001F00F0100EB02100843216888606C
:101AD000B0BD00BF00140140FEE700002DE9F04357
:101AE000C1B07B4F4FF450203858244A40F00200D8
:101AF00002F10E01884228D19146FEF7B9FE7548E1
:101B0000F3214FF0000801AD0024016014E004F55A
:101B100080704FF48076E119B0F5002F284688BF19
:101B2000C4F500263246FEF716FCB2B204F5801169
:101B30002846FFF735FE3444B8EBD44FE7D000F029
:101B400053F868B1FEF73EFE14E000F09FF84448F9
:101B50004FF48061002241B0BDE8F043FEF76CBF56
:101B6000002000F00DF8FEF72DFE484600F07AF850
:101B700000F08CF841B0BDE8F08300BFF0FFFF7FBC
:101B80002DE9F84F174D81464FF000084FF0000A3D
:101B9000B8EBDA4F18BFBDE8F88F0AF580604FF454
:101BA000806B0AEB0901B0F5002F284688BFCAF503
:101BB000002B1FFA8BF2FFF7A5FD45484FEA5B07A4
:101BC00000240AEB0006BC420AD235F8142001209A
:101BD00031460023FEF7FEFD023601340028F2D024
:101BE000DA44D5E730010020F0B587B00024019435
:101BF000FEF73EFE3748F321042701AD01600220C5
:101C0000029402AC0690012005900A2F09D82046C4
:101C100029460497FEF786FD06460137002EF4D0CC
:101C200000E00026FEF7CEFD304607B0F0BD00BF55
:101C300080B5FEF711FFFFF78FFEFFF78FFCFFF770
:101C400007FDFFF7E3FCFFF785FDFFF747FF642083
:101C5000FEF754FD02484FF40071FEF7E5FEF6E78B
:101C60000014024010B50446FEF702FE1948F321A5
:101C700022460023016002200349FEF7ABFDBDE8C8
:101C80001040FEF79FBD00BF00000E0810B5F32402
:101C90000FE0FEF7EDFD0F480460FFF7A5FF98B9D0
:101CA0004FF48010FFF76CFFFEF78CFD0A48FFF73A
:101CB000D9FF0748416801F07F41B1F1006FE8D1D9
:101CC000BDE81040FFF720BCBDE81040FEF77ABD2C
:101CD000000001080C3C0240FFFFFF7F4FF0407006
:101CE000E1EE100A70470000000000000000010251
:101CF00003040607080900000000010203040000B5
:101D0000201D00080000002030000000C401000871
:101D1000501D00083000002000150000E001000800
:101D20000100000010000000000000000024F4008A
:101D300000000000000000000000000000000000A3
:101D40000100000000000000000000000000000092
:040000050800018965
:00000001FF
